:020000040800F2
:1000000008130020010900086109000861090008BF
:10001000610900086109000861090008000000008A
:10002000000000000000000000000000610900085E
:10003000610900080000000061090008811F000834
:1000400061090008610900086109000861090008E8
:100050006109000861090008351E0008531E0008E8
:10006000711E00088F1E0008AD1E000861090008FF
:1000700061090008610900086109000861090008B8
:1000800061090008610900086109000861090008A8
:10009000610900086109000861090008CB1E000819
:1000A0006109000861090008610900086109000888
:1000B000052F0008610900086109000861090008AE
:1000C0006109000861090008610900086109000868
:1000D0006109000861090008510200085128000860
:1000E0006109000861090008610900086109000848
:1000F0006109000861090008610900086109000838
:1001000061090008610900084954000861090008F4
:100110006109000861090008610900086109000817
:100120006109000861090008610900086109000807
:1001300061090008610900086109000861090008F7
:1001400061090008610900086109000861090008E7
:1001500061090008610900086109000861090008D7
:1001600061090008610900086109000861090008C7
:1001700061090008610900086109000861090008B7
:10018000610900086109000880B588B000AF01214D
:10019000012000F07DFE01214FF4003000F096FEBA
:1001A0000C237B6102237B7602233B760023BB7604
:1001B0000023FB7607F114031946234801F02CFFB6
:1001C00007220321204801F0E9FF072202211E48EF
:1001D00001F0E4FF01214FF4003000F077FE1B48EE
:1001E00000F08AF94FF416537B6000233B81002313
:1001F0007B810023BB8100233B820C23FB813B1DC1
:100200001946124800F0E2F90121104800F098FA6E
:10021000012240F225510D4800F0D1FA26233B7708
:1002200000237B770023BB770123FB7707F11C03B7
:10023000184605F067F80121044800F081FA00BF74
:100240002037BD4680BD00BF000002400044004092
:1002500098B500AF40F22551754800F0F7FA034613
:10026000002B00F0E280724800F09AFA0346DAB2FE
:10027000704B1A70704B1B78612B08D16D4B1B783B
:100280001A466E4B1A606C4B00221A7010E06A4BD3
:100290001B78622B08D1674B1B781A46684B1A6093
:1002A000654B00221A7003E0624B1A78624B1A7099
:1002B0000C215F4800F063FA624BD3E90034184622
:1002C000214608F043FD0346DBB25F4AA2FB03234D
:1002D0005B09DBB29BB21946554800F050FA0D217C
:1002E000534800F04CFA574BD3E9003418462146E6
:1002F00008F02CFD0346DBB2534AA2FB031252095D
:10030000642101FB02F29B1ADBB29BB219464848FA
:1003100000F035FA0E21464800F031FA4B4BD3E994
:1003200000341846214608F011FD0346DBB2464A68
:10033000A2FB03235B09DBB29BB219463C4800F0E9
:100340001EFA0F213A4800F01AFA404BD3E9003464
:100350001846214608F0FAFC0346DBB23A4AA2FBF3
:1003600003125209642101FB02F29B1ADBB29BB219
:1003700019462F4800F003FA10212D4800F0FFF92C
:10038000334BD3E900341846214608F0DFFC03461E
:10039000DBB22D4AA2FB03235B09DBB29BB21946F9
:1003A000234800F0ECF91121214800F0E8F9284B2E
:1003B000D3E900341846214608F0C8FC0346DBB2F6
:1003C000214AA2FB03125209642101FB02F29B1A8B
:1003D000DBB29BB21946164800F0D1F91D4B1A68E2
:1003E000164B1B689A4205D11B4B1A68144B1B68AD
:1003F0009A4212D0114B1B68184608F081FD024644
:10040000164B1A600E4B1B68184608F079FD024621
:10041000134B1A60134B01221A60084B1B680D4ADC
:100420001360074B1B680C4A136000BF98BD00BFE8
:10043000004400401009002008090020F4080020B2
:10044000B8080020480600201F85EB515006002008
:1004500058060020EC080020E8080020BC0A002014
:10046000FC0A0020B40A002080B500AFFFF78CFE24
:1004700000BF80BD90B484B000AF03460A46FB7154
:100480001346BB710023FB60BB7903F003039B00A1
:100490000F2202FA03F3FB601649BB799B08DBB21B
:1004A0001846144ABB799B08DBB2023352F823206A
:1004B000FB68DB431A40831C41F823200D48BB79BD
:1004C0009B08DBB21C460B4ABB799B08DBB20233AC
:1004D00052F82320F979BB7903F003039B0001FA5A
:1004E00003F31A43A31C40F8232000BF1037BD4676
:1004F00090BC70470038014080B582B000AF786092
:100500007B682C4A934208D10121102000F038FD6D
:100510000021102000F034FD47E07B68264A93421A
:100520000AD101214FF4003000F00CFD00214FF4FE
:10053000003000F007FD38E07B68204A93420AD182
:1005400001214FF4802000F0FDFC00214FF48020B9
:1005500000F0F8FC29E07B68194A93420AD1012196
:100560004FF4002000F0EEFC00214FF4002000F0DA
:10057000E9FC1AE07B68134A93420AD101214FF447
:10058000801000F0DFFC00214FF4801000F0DAFC56
:100590000BE07B680C4A934207D10121202000F038
:1005A000EFFC0021202000F0EBFC00BF0837BD4627
:1005B00080BD00BF001001400044004000480040E2
:1005C000004C0040005000400014014080B58AB04B
:1005D00000AF7860396000237B6200233B62002318
:1005E000FB610023BB617B681B8A9BB27B627B6AD9
:1005F00023F440537B623B68DB881A467B6A1343D3
:100600007B627B6A9AB27B681A827B689B899BB209
:100610007B627B6A23F4B05323F00C037B623B685C
:100620009A883B681B8913439AB23B685B891343E2
:100630009BB21A467B6A13437B627B6A9AB27B68E1
:100640009A817B689B8A9BB27B627B6A23F44073AE
:100650007B623B689B891A467B6A13437B627B6A99
:100660009AB27B689A8207F10803184600F068FB8B
:100670007B68304A934203D07B682F4A934202D171
:100680007B693B6201E03B693B627B689B899BB273
:100690001BB2002B0CDA3A6A13469B0013449A00F3
:1006A0001A443B681B685B00B2FBF3F3FB610BE091
:1006B0003A6A13469B0013449A001A443B681B682D
:1006C0009B00B2FBF3F3FB61FB691C4AA2FB032313
:1006D0005B091B017B627B6A1B09642202FB03F33B
:1006E000FA69D31ABB617B689B899BB21BB2002B52
:1006F0000CDABB69DB003233104AA2FB03235B092F
:1007000003F007037A6A13437B620BE0BB691B01AA
:1007100032330A4AA2FB03235B0903F00F037A6A10
:1007200013437B627B6A9AB27B681A8100BF2837C9
:10073000BD4680BD00100140001401401F85EB51F3
:1007400080B483B000AF78600B46FB70FB78002B61
:1007500008D07B689B899BB243F400539AB27B68B4
:100760009A8107E07B689B899BB223F400539AB27D
:100770007B689A8100BF0C37BD4680BC704780B44F
:1007800083B000AF78600B467B807B88C3F308039F
:100790009AB27B689A8000BF0C37BD4680BC704718
:1007A00080B483B000AF78607B689B889BB2C3F352
:1007B00008039BB218460C37BD4680BC704780B416
:1007C00087B000AF78600B467B8013467B700023B8
:1007D0003B610023FB600023BB6000237B617B68DF
:1007E0007B617B88DBB25B09DBB23B617B8803F01A
:1007F0001F03FB600122FB6802FA03F3BB603B6945
:10080000012B03D17B690C337B6109E03B69022B2F
:1008100003D17B6910337B6102E07B6914337B6118
:100820007B78002B06D07B697A691168BA680A4325
:100830001A6006E07B697A691168BA68D2430A4097
:100840001A6000BF1C37BD4680BC704780B487B0BB
:1008500000AF78600B467B800023FB6000237B6148
:100860000023BB600023FB747B88DBB25B09DBB237
:10087000BB607B8803F01F037B6101227B6902FA66
:1008800003F37B61BB68012B07D17B689B899BB21B
:100890001A467B6913407B6111E0BB68022B07D1CC
:1008A0007B681B8A9BB21A467B6913407B6106E01A
:1008B0007B689B8A9BB21A467B6913407B617B886D
:1008C0001B0A9BB2FB600122FB6802FA03F3FB6088
:1008D0007B681B889BB21A46FB681340FB607B69F0
:1008E000002B05D0FB68002B02D00123FB7401E034
:1008F0000023FB74FB7C18461C37BD4680BC704748
:1009000080B582B000AF114B7B60114B3B6007E0BC
:100910003B681A1D3A607A68111D796012681A6086
:100920003B680C4A9342F3D30B480C494FF000024A
:100930008842B8BF40F8042BFADB01F075FE00F0E6
:1009400073F900BF0837BD4680BD00BF9095000811
:10095000000000202805002028050020040B0020AE
:1009600080B400AFFEE7000080B584B000AF012185
:10097000042000F0ABFA0023BB800023FB804FF67D
:10098000FF73BB600023BB810023BB733B1D194673
:10099000054804F06DFD0121034804F0D3FD00BFBC
:1009A0001037BD4680BD00BF0008004080B586B04E
:1009B00000AFFFF7D9FF7023BB800123FB80022328
:1009C0003B8240F63303FB603B1D1946184804F098
:1009D000D9FD0821164804F0C3FF41F26703FB600C
:1009E0003B1D1946124804F047FE0821104804F048
:1009F000D2FF41F69B03FB603B1D19460C4804F0F7
:100A0000C3FE08210A4804F0E3FF42F2CF03FB6073
:100A10003B1D1946064804F03DFF0821044804F038
:100A2000F2FF00F007F800BF1837BD4680BD00BFD9
:100A30000008004080B582B000AF0121082000F01E
:100A400027FA02220C21274801F0A8FB02220D21DF
:100A5000244801F0A3FB02220E21224801F09EFB54
:100A600002220F211F4801F099FB4FF47F433B60A6
:100A70000023BB710023FB7102233B7103237B71B5
:100A80003B461946174801F0C7FA0121022000F041
:100A9000FFF94FF470433B600023BB710023FB71EF
:100AA00001233B7103237B713B4619460E4801F03D
:100AB000B3FA0121102000F0EBF94FF470433B60D2
:100AC0000023BB710023FB7101233B7103237B7166
:100AD0003B461946054801F09FFA00BF0837BD465E
:100AE00080BD00BF000C0240000402400010024024
:100AF00080B584B000AF03463960FB713B68002BC2
:100B0000CCBF01230023FB733B68002BB8BF5B42C3
:100B10003B60FB79013B032B7AD801A252F823F00A
:100B2000310B0008690B0008A10B0008D90B000865
:100B3000FB7B002B0AD04FF48051384801F012FBA8
:100B40004FF40051354801F01BFB09E04FF4005110
:100B5000324801F007FB4FF48051304801F010FBA0
:100B60002F4A3B68536354E0FB7B002B0AD04FF4C1
:100B700080412A4801F0F6FA4FF40041274801F07D
:100B8000FFFA09E04FF40041244801F0EBFA4FF47A
:100B90008041224801F0F4FA214A3B68936338E02F
:100BA000FB7B002B0AD04FF480511E4801F0DAFA8B
:100BB0004FF480411B4801F0E3FA09E04FF4804113
:100BC000184801F0CFFA4FF48051164801F0D8FAD6
:100BD000134A3B68D3631CE0FB7B002B0AD04FF425
:100BE0000051104801F0BEFA4FF400410D4801F0E9
:100BF000C7FA09E04FF400410A4801F0B3FA4FF494
:100C00000051084801F0BCFA054A3B68136400E053
:100C100000BF00BF1037BD4680BD00BF00040240CA
:100C2000000800400010024090B585B004AF01F00C
:100C3000FBFC01F0C9F9FFF717FC01F09DFD01F085
:100C4000F5FA01F025FB01F061FF184B00221A7044
:100C5000032302934FF000034FF00004CDE900346A
:100C60004FF00002124B134802F064F8124B1B784D
:100C7000DBB2002BFAD1114B1B78DBB2012BF5D183
:100C80000F4B01221A60032302934FF000034FF031
:100C90000004CDE900344FF00002054B094801F093
:100CA000F9FF094B00221A70E0E700BF0909002094
:100CB0000000244000007A44A107002028060020FC
:100CC0003805002000007AC49007002080B483B06B
:100CD00000AF0346FB71054B00221A70034AFB79F3
:100CE000137000BF0C37BD4680BC7047023802400D
:100CF00080B582B000AF00233B600023FB7100236E
:100D0000BB71312000F05AF90346BB713B680133D7
:100D10003B603B68B3F5A06F02D0BB79002BF0D0ED
:100D2000312000F04BF90346002B02D00123FB7168
:100D300001E00023FB71FB7918460837BD4680BDF2
:100D400080B489B000AF78600023BB6100237B6171
:100D50000023FB6102233B610023FB600223BB6095
:100D6000474B9B6803F00C03BB61BB69042B07D0A6
:100D7000082B09D0002B3DD17B68424A1A603DE028
:100D80007B68414A1A6039E03D4B5B689B0D03F07C
:100D90000103FB603A4B5B6803F03F03BB60FB68F9
:100DA000002B0CD0384ABB68B2FBF3F3344A5268CC
:100DB0009209C2F3080202FB03F3FB610BE0314A24
:100DC000BB68B2FBF3F32E4A52689209C2F30802E1
:100DD00002FB03F3FB612A4B5B681B0C03F003036C
:100DE00001335B003B61FA693B69B2FBF3F27B685C
:100DF0001A6003E07B68234A1A6000BF204B9B689F
:100E000003F0F003BB61BB691B09BB611F4ABB69EF
:100E100013441B78DBB27B617B681A687B69DA401C
:100E20007B685A60164B9B6803F4E053BB61BB6957
:100E30009B0ABB61154ABB6913441B78DBB27B611B
:100E40007B685A687B69DA407B689A600C4B9B68C8
:100E500003F46043BB61BB695B0BBB610B4ABB69BD
:100E600013441B78DBB27B617B685A687B69DA408C
:100E70007B68DA6000BF2437BD4680BC704700BF86
:100E8000003802400024F40000127A000000002024
:100E900080B483B000AF78600B46FB70FB78002B0A
:100EA00006D00949084B1A6B7B6813430B6306E0B5
:100EB0000549054B1A6B7B68DB4313400B6300BF8E
:100EC0000C37BD4680BC70470038024080B483B008
:100ED00000AF78600B46FB70FB78002B06D0094909
:100EE000084B1A6C7B6813430B6406E00549054BFD
:100EF0001A6C7B68DB4313400B6400BF0C37BD46A4
:100F000080BC70470038024080B483B000AF786086
:100F10000B46FB70FB78002B06D00949084B5A6C36
:100F20007B6813434B6406E00549054B5A6C7B68AC
:100F3000DB4313404B6400BF0C37BD4680BC704799
:100F40000038024080B483B000AF78600B46FB707D
:100F5000FB78002B06D00949084B1A6A7B681343BB
:100F60000B6206E00549054B1A6A7B68DB431340B8
:100F70000B6200BF0C37BD4680BC70470038024092
:100F800080B483B000AF78600B46FB70FB78002B19
:100F900006D00949084B5A6A7B6813434B6206E046
:100FA0000549054B5A6A7B68DB4313404B6200BF1F
:100FB0000C37BD4680BC70470038024080B487B013
:100FC00000AF0346FB710023FB6000237B6100231D
:100FD000FB74FB795B09DBB2FB60FB68012B03D17F
:100FE000124B1B687B6109E0FB68022B03D10F4B9E
:100FF0001B6F7B6102E00D4B5B6F7B61FB7903F044
:101000001F03FB607A69FB6822FA03F303F0010314
:10101000002B02D00123FB7401E00023FB74FB7C56
:1010200018461C37BD4680BC704700BF00380240E0
:1010300080B483B000AF78600B46FB707B68FA78B1
:101040001A70012318460C37BD4680BC704780B427
:1010500085B000AF786039600023FB600AE07B68F0
:101060005A1C7A603A68511C396012781A70FB6811
:101070000133FB603B681B78002BF0D1FB681846FE
:101080001437BD4680BC704780B586B000AFF860AD
:101090007A603B600B46FB7200237B617B68013BFF
:1010A0007B603B68092B1DD93B681D4AA2FB0323CB
:1010B000DB08F97A7A68F868FFF7E6FF78617B6900
:1010C000FA681344FB6010E0FB7A1946F868FFF7F2
:1010D000AFFFFB680133FB607B6901337B617B6899
:1010E000013B7B607B68002BEEDC39680C4BA3FB7B
:1010F0000123DA0813469B0013445B00CA1AD3B2DB
:101100003033DBB21946F868FFF792FF02467B697D
:1011100013447B617B6918461837BD4680BD00BF0C
:10112000CDCCCCCC80B586B000AFF8607A603B60A7
:101130000B46FB7200237B613B68002B03DA3B68A4
:101140005B423B6101E03B683B617B68013B7B604C
:101150003B69092B1FD93B68002B0CDA3B692E4AEF
:10116000A2FB0323DB085B42F97A7A68F868FFF791
:10117000D9FF78610AE03B69274AA2FB0323DB0819
:10118000F97A7A68F868FFF7CDFF78617B69FA68C9
:101190001344FB6025E03B68002B11DA7B68013BC0
:1011A0007B600DE0FB7A1946F868FFF741FFFB68AA
:1011B0000133FB607B6901337B617B68013B7B60B2
:1011C0007B68002BEEDC3B68002B0ADA2D21F868E7
:1011D000FFF72EFF02467B6913447B61FB680133F6
:1011E000FB6039690C4BA3FB0123DA0813469B0013
:1011F00013445B00CA1AD3B23033DBB21946F86825
:10120000FFF716FF02467B6913447B617B69184632
:101210001837BD4680BD00BFCDCCCCCC80B588B0E2
:1012200002AFF8607A601A460B46FB721346BB7237
:1012300000237B617B68013B7B603B6A1B09002BC1
:1012400020D03B6A1B09BA7AF97A009313467A6870
:10125000F868FFF7E3FF02467B6913447B617B6913
:10126000FA681344FB6010E0FB7A1946F868FFF750
:10127000DFFEFB680133FB607B6901337B617B68C8
:10128000013B7B607B68002BEEDC3B6A03F00F03C5
:10129000092B0BD83B6ADBB203F00F03DBB2303310
:1012A000DBB21946F868FFF7C3FE19E0BB7A002BE2
:1012B0000BD03B6ADBB203F00F03DBB23733DBB298
:1012C0001946F868FFF7B4FE0AE03B6ADBB203F0A8
:1012D0000F03DBB25733DBB21946F868FFF7A8FEFD
:1012E0007B6901337B617B6918461837BD4680BD39
:1012F00080B58AB002AFF860B9607A603B600023C5
:10130000BB6100237B61FB68002B00F0FC80FB6865
:1013100000221A70F7E07B681B78252B0BD0FB6846
:101320005A1CFA607A68511C796012781A707B69CD
:1013300001337B61E7E07B6801331B78252B0BD100
:10134000FB685A1CFA6025221A707B6802337B60A6
:101350007B6901337B61D6E02023FB770023BB77D9
:101360007B6801337B607B681B78302B14D1302382
:10137000FB777B6801337B600EE0BB7F1A469200EF
:1013800013445B00DAB27B681B781344DBB2303B5A
:10139000BB777B6801337B607B681B782F2B03D97D
:1013A0007B681B78392BE8D9BA7F7B6913441A46CE
:1013B000BB689A4205D9BB68DAB27B69DBB2D31A43
:1013C000BB777B681B78583B202B00F28E8001A2F4
:1013D00052F823F0A5140008EB140008EB140008E1
:1013E000EB140008EB140008EB140008EB140008E1
:1013F000EB140008EB140008EB140008EB140008D1
:10140000D514000859140008EB140008EB14000868
:10141000EB140008EB14000859140008EB14000842
:10142000EB140008EB140008EB140008EB140008A0
:10143000EB140008EB140008EB140008EB14000890
:10144000C1140008EB14000871140008EB14000824
:10145000EB14000889140008B87F3B681A1D3A6035
:101460001B68F97F0246F868FFF75CFEB8613FE051
:10147000B87F3B681A1D3A601B68F97F0246F8681E
:10148000FFF702FEB86133E0B87F3B681A1D3A608F
:101490001B68F97F009300230246F868FFF7BEFE41
:1014A000B86125E0B87F3B681A1D3A601B68F97F78
:1014B000009301230246F868FFF7B0FEB86117E019
:1014C0003B681A1D3A601B681946F868FFF7BFFDB4
:1014D000B8610DE03B681A1D3A601B68DBB2194623
:1014E000F868FFF7A5FDB86102E04FF0FF3325E093
:1014F0007B6801337B60BB69FA681344FB607A69DF
:10150000BB6913447B617B681B78002B04D07A692C
:10151000BB689A42FFF4FFAE7A69BB689A4203D275
:10152000FB6800221A7008E0FB68013BFB60FB6867
:1015300000221A707B69013B7B617B69184620376A
:10154000BD4680BD80B584B000AFF860B9607A60F8
:101550007B68BA686421F868FFF7CAFE034618463C
:101560001037BD4680BD0EB480B585B000AF786041
:1015700007F12003BB60BA68F9697868FFF7E2FFFA
:10158000F860FB6818461437BD46BDE8804003B0DC
:101590007047000090B589B000AF78600121082045
:1015A000FFF776FC01214FF48040FFF7ADFC0023EC
:1015B0003B770023BB770123FB7703237B77012352
:1015C000BB6107F1180319461E4800F025FD1023E2
:1015D000BB6107F1180319461A4800F01DFD0021F0
:1015E0000320FEF747FF01233B610123BB75002366
:1015F0003B7510237B7507F11003184603F0DEFDE1
:1016000006233B7303237B730023BB730123FB730C
:1016100007F10C03184603F075FE0B4B00221A600D
:101620007A684FF000034FF00004C2E902347A6890
:101630004FF000034FF00004C2E9003400BF24372C
:10164000BD4690BD000C02402C09002090B589B029
:1016500000AF786001210820FFF71AFC01214FF448
:101660008040FFF751FC00233B770023BB77012329
:10167000FB7703237B770223BB6107F1180319462D
:101680001E4800F0C9FC2023BB6107F1180319466E
:101690001A4800F0C1FC01210320FEF7EBFE0223F3
:1016A0003B610123BB7500233B7510237B7507F15C
:1016B0001003184603F082FD07233B7303237B735B
:1016C0000023BB730123FB7307F10C03184603F0DF
:1016D00019FE0B4B00221A607A684FF000034FF09E
:1016E0000004C2E902347A684FF000034FF00004AE
:1016F000C2E9003400BF2437BD4690BD000C024053
:101700002809002090B589B000AF78600121082039
:10171000FFF7BEFB01214FF48040FFF7F5FB0023EC
:101720003B770023BB770123FB7703237B770423DD
:10173000BB6107F1180319461E4800F06DFC4023F9
:10174000BB6107F1180319461A4800F065FC022135
:101750000320FEF78FFE04233B610123BB750023AA
:101760003B7510237B7507F11003184603F026FD27
:1017700008233B7303237B730023BB730123FB7399
:1017800007F10C03184603F0BDFD0B4B00221A6055
:101790007A684FF000034FF00004C2E902347A681F
:1017A0004FF000034FF00004C2E9003400BF2437BB
:1017B000BD4690BD000C02403009002090B589B0B4
:1017C00000AF786001210820FFF762FB01214FF490
:1017D0008040FFF799FB00233B770023BB77012371
:1017E000FB7703237B770823BB6107F118031946B6
:1017F0001E4800F011FC8023BB6107F11803194655
:101800001A4800F009FC03210320FEF733FE0823E9
:101810003B610123BB7500233B7510237B7507F1EA
:101820001003184603F0CAFC09233B7303237B73A0
:101830000023BB730123FB7307F10C03184603F06D
:1018400061FD0B4B00221A607A684FF000034FF0E5
:101850000004C2E902347A684FF000034FF000043C
:10186000C2E9003400BF2437BD4690BD000C0240E1
:101870002409002090B589B000AF786001210220D2
:10188000FFF706FB01214FF48040FFF73DFB0023EB
:101890003B770023BB770123FB7703237B77102360
:1018A000BB6107F1180319461E4800F0B5FB04237D
:1018B000BB6107F1180319461A4800F0ADFB04217B
:1018C0000120FEF7D7FD10233B610123BB750023E8
:1018D0003B7510237B7507F11003184603F06EFC6F
:1018E0000A233B7303237B730023BB730123FB7326
:1018F00007F10C03184603F005FD0B4B00221A609C
:101900007A684FF000034FF00004C2E902347A68AD
:101910004FF000034FF00004C2E9003400BF243749
:10192000BD4690BD000402401C09002090B589B05E
:1019300000AF786001210220FFF7AAFA01214FF4DD
:101940008040FFF7E1FA00233B770023BB770123B8
:10195000FB7703237B772023BB6107F1180319462C
:101960001E4800F059FB0823BB6107F11803194614
:101970001A4800F051FB05210120FEF77BFD2023D2
:101980003B610123BB7500233B7510237B7507F179
:101990001003184603F012FC17233B7303237B73D9
:1019A0000023BB730123FB7307F10C03184603F0FC
:1019B000A9FC0B4B00221A607A684FF000034FF02D
:1019C0000004C2E902347A684FF000034FF00004CB
:1019D000C2E9003400BF2437BD4690BD0004024078
:1019E0002009002090B583B000AF78601A4B1B68C7
:1019F000184606F06DFE7B68D3E900341A4623468C
:101A000006F018FD03460C467A68C2E90234124B10
:101A10001B68184606F05CFE03460C467A68C2E96D
:101A200000340D4B1B68002B04DA7B6801221A740A
:101A300001230CE0084B1B68002B04DD7B680022AF
:101A40001A74002303E07B6802221A7402231846EA
:101A50000C37BD4690BD00BF2C09002090B583B067
:101A600000AF78601A4B1B68184606F031FE7B68A1
:101A7000D3E900341A46234606F0DCFC03460C4644
:101A80007A68C2E90234124B1B68184606F020FE41
:101A900003460C467A68C2E900340D4B1B68002BE4
:101AA00004DA7B6801221A7401230CE0084B1B68DE
:101AB000002B04DD7B6800221A74002303E07B689E
:101AC00002221A74022318460C37BD4690BD00BF8F
:101AD0002809002090B583B000AF78601A4B1B68CE
:101AE000184606F0F5FD7B68D3E900341A46234614
:101AF00006F0A0FC03460C467A68C2E90234124B99
:101B00001B68184606F0E4FD03460C467A68C2E9F5
:101B100000340D4B1B68002B04DA7B6801221A7419
:101B200001230CE0084B1B68002B04DD7B680022BE
:101B30001A74002303E07B6802221A7402231846F9
:101B40000C37BD4690BD00BF3009002090B583B072
:101B500000AF78601A4B1B68184606F0B9FD7B6829
:101B6000D3E900341A46234606F064FC03460C46CB
:101B70007A68C2E90234124B1B68184606F0A8FDC9
:101B800003460C467A68C2E900340D4B1B68002BF3
:101B900004DA7B6801221A7401230CE0084B1B68ED
:101BA000002B04DD7B6800221A74002303E07B68AD
:101BB00002221A74022318460C37BD4690BD00BF9E
:101BC0002409002080B582B000AF0121144800F044
:101BD000B0FA0346FB711021114800F0AAFA03463F
:101BE000BB71104B1B78FA799A4214D00D4AFB79DD
:101BF00013700C4B1B78002B0DD1BB79012B05D139
:101C0000094B1B680133084A136004E0064B1B684C
:101C1000013B054A136000BF0837BD4680BD00BFC9
:101C2000000C02403C0400202C09002080B582B04A
:101C300000AF0221144800F07CFA0346FB7120211A
:101C4000114800F076FA0346BB71104B1B78FA7905
:101C50009A4214D00D4AFB7913700C4B1B78002B61
:101C60000DD1BB79012B05D1094B1B680133084A03
:101C7000136004E0064B1B68013B054A136000BF7C
:101C80000837BD4680BD00BF000C02403D04002067
:101C90002809002080B582B000AF0421144800F06C
:101CA00048FA0346FB714021114800F042FA03460E
:101CB000BB71104B1B78FA799A4214D00D4AFB790C
:101CC00013700C4B1B78002B0DD1BB79012B05D168
:101CD000094B1B680133084A136004E0064B1B687C
:101CE000013B054A136000BF0837BD4680BD00BFF9
:101CF000000C02403E0400203009002080B582B074
:101D000000AF0821144800F014FA0346FB7180214B
:101D1000114800F00EFA0346BB71104B1B78FA799C
:101D20009A4214D00D4AFB7913700C4B1B78002B90
:101D30000DD1BB79012B05D1094B1B680133084A32
:101D4000136004E0064B1B68013B054A136000BFAB
:101D50000837BD4680BD00BF000C02403F04002094
:101D60002409002080B582B000AF1021144800F093
:101D7000E0F90346FB710421114800F0DAF903464B
:101D8000BB71104B1B78FA799A4214D00D4AFB793B
:101D900013700C4B1B78002B0DD1BB79012B05D197
:101DA000094B1B680133084A136004E0064B1B68AB
:101DB000013B054A136000BF0837BD4680BD00BF28
:101DC00000040240400400201C09002080B582B0BD
:101DD00000AF2021144800F0ACF90346FB71082144
:101DE000114800F0A6F90346BB71104B1B78FA7935
:101DF0009A4214D00D4AFB7913700C4B1B78002BC0
:101E00000DD1BB79012B05D1094B1B680133084A61
:101E1000136004E0064B1B68013B054A136000BFDA
:101E20000837BD4680BD00BF0004024041040020C9
:101E30002009002080B500AF012003F031FA0346ED
:101E4000002B04D0FFF7BEFE012003F04DFA00BFC7
:101E500080BD80B500AF022003F022FA0346002BBC
:101E600004D0FFF7E3FE022003F03EFA00BF80BD7E
:101E700080B500AF042003F013FA0346002B04D012
:101E8000FFF708FF042003F02FFA00BF80BD80B5E4
:101E900000AF082003F004FA0346002B04D0FFF73C
:101EA0002DFF082003F020FA00BF80BD80B500AFF1
:101EB000102003F0F5F90346002B04D0FFF752FF82
:101EC000102003F011FA00BF80BD80B500AF2020C4
:101ED00003F0E6F90346002B04D0FFF777FF20203C
:101EE00003F002FA00BF80BD80B483B000AF0346A8
:101EF0003960FB7197F90730002B0BDA0D49FB793C
:101F000003F00F03043B3A68D2B21201D2B20B4481
:101F10001A7609E0084997F907303A68D2B21201F7
:101F2000D2B20B4483F8002300BF0C37BD4680BCFF
:101F3000704700BF00ED00E000E100E080B582B036
:101F400000AF78607B68B3F1807F01D3012311E09B
:101F50000A4A7B6823F07F43013B53600F214FF017
:101F6000FF30FFF7C1FF054B00229A60034B0722A9
:101F70001A60002318460837BD4680BD10E000E017
:101F800080B400AF0D4B1B6801330C4A13600C4B3F
:101F90001B68002B04D00A4B1B68013B084A1360E6
:101FA000084B1B68002B04D0064B1B68013B054AFD
:101FB000136000BFBD4680BC704700BF54050020C1
:101FC000580500205005002080B500AF0F4B1B784E
:101FD000002B19D10120FEF779FE00BFFEF788FE25
:101FE0000346002BFAD00A4B1B680A4AA2FB0323C4
:101FF0009B0C1846FFF7A2FF0346002B00D0FEE71C
:10200000024B01221A7000E000BF80BD5C05002079
:10201000BC04002083DE1B4380B487B000AF78602F
:10202000396000237B6100233B610023FB600023B8
:102030007B6176E001227B6902FA03F33B613B6836
:102040001A683B691340FB60FA683B699A4265D1A4
:102050007B681A687B695B00032101FA03F3DB43A9
:102060001A407B681A607B681A683B681B791946BE
:102070007B695B0001FA03F31A437B681A603B68D3
:102080001B79012B03D03B681B79022B2ED17B6877
:102090009A687B695B00032101FA03F3DB431A4072
:1020A0007B689A607B689A683B685B7919467B69B4
:1020B0005B0001FA03F31A437B689A607B685A68F5
:1020C0007B699BB2194601238B40DB431A407B6836
:1020D0005A607B685B683A68927911467A6992B275
:1020E00001FA02F292B21A437B685A607B68DA689E
:1020F0007B699BB25B00032101FA03F3DB431A40C7
:102100007B68DA607B68DA683B68DB7919467B6953
:102110005B0001FA03F31A437B68DA607B690133E1
:102120007B617B690F2B85D900BF1C37BD4680BC06
:10213000704780B485B000AF78600B467B80002389
:10214000FB737B681A697B881340002B02D0012344
:10215000FB7301E00023FB73FB7B18461437BD467D
:1021600080BC704780B483B000AF78600B467B8042
:102170007B687A881A8300BF0C37BD4680BC7047E5
:1021800080B483B000AF78600B467B807B687A8830
:102190005A8300BF0C37BD4680BC704780B485B001
:1021A00000AF78600B467B8013467B700023FB609A
:1021B0000023BB607A787B8803F007039B0002FA58
:1021C00003F3FB607B88DB089BB218467B88DB0847
:1021D0009BB21A467B68083253F822207B8803F0B2
:1021E00007039B000F2101FA03F3DB4302EA03011B
:1021F0007B6800F1080243F822107B88DB089BB261
:102200001A467B68083253F82220FB681343BB60F0
:102210007B88DB089BB21A467B680832B96843F8B2
:10222000221000BF1437BD4680BC704780B582B015
:1022300000AF01210220FEF72BFE4FF470733B60CC
:1022400002237B7101233B710023BB710023FB71CF
:102250003B4619460C48FFF7DFFE01210120FEF73F
:1022600017FEC0233B6002237B7101233B710023D7
:10227000BB710023FB713B4619460448FFF7CCFEB7
:1022800000BF0837BD4680BD000402400000024088
:1022900080B582B000AF01210420FEF7F9FD0223D2
:1022A0003B6002237B7101233B710023BB71002340
:1022B000FB713B4619460348FFF7AEFE00BF0837E7
:1022C000BD4680BD0008024080B500AF10210D481A
:1022D000FFF756FF20210B48FFF744FF40210A4833
:1022E000FFF740FF4FF400710648FFF749FF4FF436
:1022F00080710448FFF736FF80210348FFF732FF63
:1023000000BF80BD000402400000024080B500AF65
:10231000012000F077F84CF2503000F076F900BF61
:1023200080BD80B582B000AF03463A60FB710B46BA
:10233000BB71BA79FB791146184600F041F907E004
:102340003B681B78184600F0CCF83B6801333B60D3
:102350003B681B78002BF3D100BF0837BD4680BD1A
:1023600080B483B000AF0346FB71FA790B49134682
:102370009B0013449B000B4404331968FA79074807
:1023800013469B0013449B00034408331B884B8374
:1023900000BF0C37BD4680BC704700BF440400201E
:1023A00080B483B000AF0346FB71FA790B49134642
:1023B0009B0013449B000B4404331968FA790748C7
:1023C00013469B0013449B00034408331B880B8374
:1023D00000BF0C37BD4680BC704700BF44040020DE
:1023E00080B500AF0120FFF7DBFF4FF47A7000F0FB
:1023F0000CF90120FFF7B4FF4FF47A7000F005F9F3
:1024000000BF80BD80B582B000AF0346FB710020E5
:10241000FFF7A6FF97F90730002B03DA0520FFF737
:10242000BFFF02E00520FFF79BFFFB7903F04003AD
:10243000002B03D00420FFF7B3FF02E00420FFF7D6
:102440008FFFFB7903F02003002B03D00320FFF75D
:10245000A7FF02E00320FFF783FFFB7903F01003DF
:10246000002B03D00220FFF79BFF02E00220FFF7C2
:1024700077FFFFF7B5FFFB7903F00803002B03D0CC
:102480000520FFF78DFF02E00520FFF769FFFB79CC
:1024900003F00403002B03D00420FFF781FF02E0C8
:1024A0000420FFF75DFFFB7903F00203002B03D04C
:1024B0000320FFF775FF02E00320FFF751FFFB79D0
:1024C00003F00103002B03D00220FFF769FF02E0B5
:1024D0000220FFF745FFFFF783FF00BF0837BD4627
:1024E00080BD80B582B000AF0346FB710020FFF7CE
:1024F00057FF97F90730002B03DA0520FFF750FF4D
:1025000002E00520FFF72CFFFB7903F04003002BCE
:1025100003D00420FFF744FF02E00420FFF720FF70
:10252000FB7903F02003002B03D00320FFF738FFD3
:1025300002E00320FFF714FFFB7903F01003002BE8
:1025400003D00220FFF72CFF02E00220FFF708FF74
:10255000FFF746FFFB7903F00803002B03D00520AB
:10256000FFF71EFF02E00520FFF7FAFEFB7903F0FC
:102570000403002B03D00420FFF712FF02E0042025
:10258000FFF7EEFEFB7903F00203002B03D00320DC
:10259000FFF706FF02E00320FFF7E2FEFB7903F0FE
:1025A0000103002B03D00220FFF7FAFE02E0022015
:1025B000FFF7D6FEFFF714FF00BF0837BD4680BD0A
:1025C00080B584B000AF03460A46FB711346BB7169
:1025D000FB790F2B01D90023FB71BB79012B01D9AA
:1025E0000023BB71BB799B01FB73FA7BFB7913431F
:1025F000FB73FB7B63F07F03FB73FB7B1846FFF7EA
:1026000001FF00BF1037BD4680BD80B483B000AF6E
:10261000786000BF7B685A1E7A60002BFAD100BF39
:102620000C37BD4680BC704780B500AF124A124BD4
:102630001B6843F0010313600F4B00229A600E4A9F
:102640000D4B1B6823F0847323F4803313600A4B13
:102650000A4A5A60084A084B1B6823F48023136017
:10266000054B0022DA6000F00DF8054B4FF00062D8
:102670009A6000BF80BD00BF0038024010300024C7
:1026800000ED00E080B483B000AF00237B60002346
:102690003B60354A344B1B6843F480331360324B44
:1026A0001B6803F400333B607B6801337B603B684D
:1026B000002B03D17B68B3F5A06FF0D12A4B1B68C8
:1026C00003F40033002B02D001233B6001E0002320
:1026D0003B603B68012B42D1234A234B1B6C43F0E8
:1026E00080531364214A214B1B6843F480431360D9
:1026F0001D4A1D4B9B6893601B4A1B4B9B6843F410
:1027000000439360184A184B9B6843F4A0539360AE
:10271000154B174A5A60144A134B1B6843F08073D9
:10272000136000BF104B1B6803F00073002BF9D03F
:10273000104B40F205621A600B4A0B4B9B6823F06A
:1027400003039360084A084B9B6843F002039360BD
:1027500000BF054B9B6803F00C03082BF9D100BFA9
:102760000C37BD4680BC7047003802400070004006
:1027700008544007003C024080B588B000AF2F4BA2
:1027800000221A702E4B00221A702E4B00221A7053
:1027900001210220FEF77CFB01214FF48020FEF78F
:1027A00095FB4FF440637B6102237B7602233B76EB
:1027B0000023BB760123FB7607F114031946224858
:1027C000FFF72AFC07220A211F48FFF7E7FC072230
:1027D0000B211D48FFF7E2FC4FF416537B600023EA
:1027E0003B8100237B810023BB8100233B820C23A0
:1027F000FB813B1D19461548FDF7E8FE01211348F2
:10280000FDF79EFF012240F225511048FDF7D7FF4A
:1028100027233B7700237B770023BB770123FB77BC
:1028200007F11C03184602F06DFD01210748FDF772
:1028300087FF00BF2037BD4680BD00BFDC080020F9
:10284000120900200909002000040240004800404D
:1028500098B500AF40F225518448FDF7F7FF0346D5
:10286000002B00F000818148FDF79AFF0346DAB2A1
:102870007F4B1A707F4B1B687D4A11787E4AD1547A
:102880007D4B1B78582B07D07B4B1B78592B03D0E3
:10289000794B1B78542B08D1784B04221A60754B66
:1028A0001B680133734A13600BE0734B1B78432B97
:1028B00007D1724B05221A606E4B1B6801336D4ABB
:1028C00013606C4B1A686D4B1B689A4240F0CB80CA
:1028D000694B1B78582B22D1674B5B78303B9BB2FE
:1028E0001A46920013441A4691001A460B461344A6
:1028F0009B009AB2604B9B78303B9BB21946890093
:102900000B445B009BB213449AB25B4BDB789BB2E7
:1029100013449BB2303B9AB2594B1A80A0E0564BFD
:102920001B78592B22D1544B5B78303B9BB21A4613
:10293000920013441A4691001A460B4613449B001A
:102940009AB24D4B9B78303B9BB2194689000B44A1
:102950005B009BB213449AB2474BDB789BB21344A3
:102960009BB2303B9AB2474B1A8079E0424B1B78BE
:10297000542B75D0404B1B78432B71D13E4B5B7869
:10298000303B184606F0BCFA03463F49184606F0AD
:102990000BFB03461C46384B9B78303B642202FB02
:1029A00003F3184606F0ACFA03461946204606F033
:1029B000F3F903461C46304BDB78A3F13002134693
:1029C0009B0013445B00184606F09AFA034619462A
:1029D000204606F0E1F903461C46274B1B79303BA5
:1029E000184606F08DFA03461946204606F0D4F93B
:1029F00003461A46254B1A60244B1A68244B1B6861
:102A00001946104606F0C6F903461A461F4B1A60CF
:102A10001E4B1B684FF00001184606F063FC03468E
:102A2000002B0AD0194B1B681A49184606F0B4F956
:102A300003461A46154B1A6012E0144B1B681549E1
:102A4000184606F06DFC0346002B09D00F4B1B689F
:102A50001049184606F09EF903461A460B4B1A60B9
:102A6000044B00221A6000BF98BD00BF0048004020
:102A70003A09002068050020340900206405002080
:102A8000000900201809002000007A44D408002022
:102A9000600500200000B44380B584B000AF012180
:102AA0000120FEF713FA49F68313BB800023FB8055
:102AB0000923BB600023BB810023BB733B1D194668
:102AC0004FF0804002F0D4FC01214FF0804002F032
:102AD00039FD012201214FF0804002F0B1FF00BF1B
:102AE0001037BD4680BD80B582B000AF1C233B715E
:102AF00000237B710123BB710123FB713B1D184631
:102B000002F000FC00BF0837BD4680BD80B500AFB5
:102B1000FFF7C2FFFFF7E7FF0D48FEF73BFD0D484B
:102B2000FEF794FD0C48FEF7EDFD0C48FEF746FE5F
:102B30000B48FEF79FFE0B48FEF7F8FEFDF736FF49
:102B4000FDF778FF00F010F800F044F900BF80BDF9
:102B5000E009002068090020F80900208809002009
:102B6000200A0020380A002090B400AF394A4FF004
:102B700000034FF00004C2E90034374A4FF000036D
:102B80004FF00004C2E90034344A4FF000034FF024
:102B90000004C2E90034324A4FF000034FF0000451
:102BA000C2E900342F4A4FF000034FF00004C2E99D
:102BB00000342D4A4FF000034FF00004C2E9003406
:102BC0002A4A4FF000034FF00004C2E90034284ABB
:102BD0004FF000034FF00004C2E90034254A4FF0E3
:102BE00000034FF00004C2E90034234A4FF0000311
:102BF0004FF00004C2E90034204A4FF000034FF0C8
:102C00000004C2E900341E4A4FF000034FF00004F4
:102C1000C2E900341B4A4FF000034FF00004C2E940
:102C20000034194A4FF000034FF00004C2E90034A9
:102C3000164A4FF000034FF00004C2E90034144A72
:102C40004FF000034FF00004C2E9003400BFBD465E
:102C500090BC704780060020880600209006002067
:102C600098060020B0060020B8060020C00600200C
:102C7000C8060020D0060020D8060020E00600206C
:102C8000E8060020F006002048060020500600203C
:102C90005806002090B585B000AFF860C7E9002362
:102CA00000F0D4F81A4B01221A701A4B00221A8035
:102CB000194ABB6A1360194AFB681360184BD3E9C1
:102CC00000341A462346D7E9000105F091FE034679
:102CD0000C46144AC2E90034134A4FF000034FF087
:102CE0000004C2E90034114B00221A700C4BD3E9E6
:102CF00000341A462346D7E9080105F079FE034659
:102D00000C460B4AC2E9003400BF1437BD4690BDE3
:102D1000090600200006002080090020B0090020DC
:102D2000D8040020A8090020180A00200806002066
:102D3000D009002090B585B000AFF860C7E9002346
:102D400000F084F81A4B01221A701A4B00221A80E4
:102D5000194ABB6A1360194AFB681360184BD3E920
:102D600000341A462346D7E9000105F041FE034628
:102D70000C46144AC2E90034134A4FF000034FF0E6
:102D80000004C2E90034114B00221A700C4BD3E945
:102D900000341A462346D7E9080105F029FE034608
:102DA0000C460B4AC2E9003400BF1437BD4690BD43
:102DB000290600202006002080090020400900206C
:102DC000D8040020C8090020500A0020280600204E
:102DD0005009002090B400AF164A4FF000034FF0A6
:102DE0000004C2E90034144A4FF000034FF000041D
:102DF000C2E90034114A4FF000034FF00004C2E969
:102E000000340F4A4FF000034FF00004C2E90034D1
:102E10000C4A4FF000034FF00004C2E900340A4AA4
:102E20004FF000034FF00004C2E9003400BFBD467C
:102E300090BC7047C807002030070020F007002032
:102E400058070020180800208007002098B500AF20
:102E5000FFF78AFEFFF7BEFF224B00221A60224ACC
:102E60004FF000034FF00004C2E902341E4A4FF055
:102E700000034FF00004C2E900341C4B00221A602A
:102E80001B4A4FF000034FF00004C2E90234184A15
:102E90004FF000034FF00004C2E90034154B00224C
:102EA0001A60154A4FF000034FF00004C2E90234E3
:102EB000114A4FF000034FF00004C2E900340F4BF9
:102EC00000221A600E4A4FF000034FF00004C2E9DE
:102ED00002340B4A4FF000034FF00004C2E9003403
:102EE00000BF98BD2C090020E0090020280900201F
:102EF0006809002030090020F8090020240900207A
:102F00008809002090B583B000AF01214FF08040C8
:102F100002F0B9FD0346002B00F0528101214FF071
:102F2000804002F0D9FD00F0EDFFA74B1B68092B94
:102F30000FD1A54B4FF0FF321A60A448FEF752FDA7
:102F4000A348FEF703FEA348FEF788FDA248FEF75C
:102F5000C1FD9D4B1B6801339B4A13609F4B0022B0
:102F60001A609E4B1B68012B02D101F095F83CE0E2
:102F70009B4B1B68DAB29B4B1B68DBB2D31ADAB2ED
:102F8000994B1A70964B1B68964A1360964B1B78A8
:102F9000184601F0F9FA00F039F9934B1B781846FE
:102FA00000F0A2FE904B1B78184601F0D1FD01F015
:102FB000E7FF8E4B1B78DBB2012B16D100237B6021
:102FC00010E08B4B00221A608A4B00221A608A4B59
:102FD00000221A60894B00221A60FFF737FF7B68D6
:102FE00001337B607B68092BEBDD814B1B68184646
:102FF00005F06EFB824BD3E900341A46234605F0F8
:103000005DFE0346002B0AD07D4BD3E90034184601
:10301000214605F073FE0246754B1A6018E0744BAA
:103020001B68184605F054FB764BD3E900341A466A
:10303000234605F025FE0346002B09D0714BD3E94A
:1030400000341846214605F059FE0246684B1A60C6
:10305000684B1B68184605F03BFB694BD3E900340D
:103060001A46234605F02AFE0346002B0AD0644B7D
:10307000D3E900341846214605F040FE02465D4B78
:103080001A6018E05B4B1B68184605F021FB5D4B8E
:10309000D3E900341A46234605F0F2FD0346002B1F
:1030A00009D0584BD3E900341846214605F026FED6
:1030B0000246504B1A60504B1B68184605F008FB3F
:1030C0004F4BD3E900341A46234605F0F7FD03467B
:1030D000002B0AD04A4BD3E900341846214605F0AC
:1030E0000DFE0246444B1A6018E0434B1B6818461D
:1030F00005F0EEFA434BD3E900341A46234605F0B7
:10310000BFFD0346002B09D03E4BD3E900341846DF
:10311000214605F0F3FD0246374B1A60374B1B681A
:10312000184605F0D5FA364BD3E900341A46234643
:1031300005F0C4FD0346002B0AD0314BD3E900341F
:103140001846214605F0DAFD02462C4B1A6018E0BD
:103150002A4B1B68184605F0BBFA2A4BD3E900340A
:103160001A46234605F08CFD0346002B09D0254B5B
:10317000D3E900341846214605F0C0FD02461F4B36
:103180001A60214B1B78002B17D1194B1B6819466D
:103190000120FDF7ADFC194B1B6819460420FDF713
:1031A000A7FC144B1B6819460220FDF7A1FC124B2B
:1031B0001B6819460320FDF79BFC0C4B00221A707C
:1031C00000BF0C37BD4690BDA8080020E0090020D4
:1031D0008809002068090020F8090020040900205F
:1031E000A4070020A8070020AC070020A1070020AA
:1031F000D4050020D8050020DC050020E0050020D3
:10320000F8040020F0040020090900202DE9B04353
:1032100000AFB54B1B78012B40F09580B34B1B885A
:103220009BB2184605F054FAB14BD3E900341A4664
:10323000234605F025FD0346002B6CD0AC4BD3E9AB
:1032400000014FF000024FF0000305F037FD034688
:10325000002B00F02282A54B1B889BB2184605F07C
:1032600037FAA34BD3E900341A46234605F0C0FBD6
:1032700003460C469F4AC2E900349F4B1B68184620
:1032800005F038FA04460D469A4BD3E900014FF099
:1032900000029A4B02F0C0FC4FF00002984B05F080
:1032A0007DFA02460B4690469946924BD3E90001BF
:1032B0004FF00002934B02F0AFFC4FF00002924B34
:1032C00005F06CFA02460B464046494605F0B2F856
:1032D00002460B4690469946864BD3E900014FF0D3
:1032E00000028A4B02F098FC4FF00002884B05F078
:1032F00055FA02460B464046494605F09DF80246FF
:103300000B462046294605F049FA03460C46814AF9
:10331000C2E90034C1E1754B1B889BB2184605F029
:10332000D7F9734BD3E900341A46234605F0BCFCA9
:103330000346002B00F0B1816B4B02221A706B4BDD
:1033400000221A80A9E1684B1B78022B3FD1674B02
:103350001B889BB2184605F0BBF96F4BD3E90034CC
:103360001A46234605F08CFC0346002B17D06A4B07
:10337000D3E900014FF000024FF0000305F09EFC7E
:103380000346002B00F089815B4B1B68184605F053
:10339000B1F903460C465F4AC2E900347DE1534B64
:1033A0001B889BB2184605F093F95B4BD3E90034B8
:1033B0001A46234605F078FC0346002B00F06D8189
:1033C000494B03221A70494B00221A8065E1464B93
:1033D0001B78032B40F0C080444B1B889BB21846DF
:1033E00005F076F9424BD3E900341A46234605F03E
:1033F00047FC0346002B00F093803D4BD3E90001CE
:103400004FF000024FF0000305F058FC0346002B7C
:1034100000F04381354B1B889BB2184605F058F9E4
:10342000334BD3E900341A46234605F0E1FA03464C
:103430000C461A4623464FF00000384904F0FAFFC4
:1034400003460C462B4AC2E900342B4B1B68184636
:1034500005F050F904460D46264BD3E900014FF024
:103460000002264B02F0D8FB4FF00002244B05F07F
:1034700095F902460B46904699461E4BD3E900014A
:103480004FF000021F4B02F0C7FB4FF000021E4B33
:1034900005F084F902460B464046494604F0CAFF4F
:1034A00002460B4690469946124BD3E900014FF075
:1034B0000002164B02F0B0FB4FF00002144B05F077
:1034C0006DF902460B464046494604F0B5FF0246F8
:1034D0000B462046294605F061F903460C460D4A85
:1034E000C2E90034D9E000BF090600200006002030
:1034F000A8090020B8090020B009002000001440ED
:10350000000018400000104000002E40000008405D
:1035100000002440180A0020D00900200000F03FDD
:10352000AB4B1B889BB2184605F0D2F8A94BD3E9E8
:1035300000341A46234605F0B7FB0346002B00F083
:10354000AC80A54A4FF000034FF00004C2E90034FC
:10355000A24B01221A70A0E0A14B1B78042B40F073
:103560009C80A04B1B881BB2002B0CDA9D4B1B8848
:103570001BB29BB25B429BB21AB29B4B1A809B4B15
:1035800001221A7007E0974B1B881AB2964B1A80DB
:10359000964B00221A70944B1B881BB2184605F0FC
:1035A00097F88C4BD3E900341A46234605F068FBA4
:1035B0000346002B6BD0874BD3E900014FF000028C
:1035C0004FF0000305F07AFB0346002B65D0864BD5
:1035D0001B881BB2184605F07BF87E4BD3E90034FC
:1035E0001A46234605F004FA03460C46804AC2E90F
:1035F0000034804B1B68184605F07CF804460D46E5
:103600007B4BD3E900014FF000027B4B02F004FB3F
:103610004FF00002794B05F0C1F802460B46904688
:103620009946734BD3E900014FF00002744B02F04E
:10363000F3FA4FF00002734B05F0B0F802460B4668
:103640004046494604F0F6FE02460B46904699462F
:10365000674BD3E900014FF000026B4B02F0DCFA3C
:103660004FF00002694B05F099F802460B464046C0
:10367000494604F0E1FE02460B462046294605F085
:103680008DF803460C46544AC2E9003405E0564B17
:103690001B881BB2184605F01BF85D4B1B78012BED
:1036A00040F0C2805B4B1B889BB2184605F010F8B7
:1036B000594BD3E900341A46234605F0E1FA034694
:1036C000002B6CD0544BD3E900014FF000024FF0B7
:1036D000000305F0F3FA0346002B00F055824D4B32
:1036E0001B889BB2184604F0F3FF4B4BD3E9003420
:1036F0001A46234605F07CF903460C46474AC2E9C0
:103700000034474B1B68184604F0F4FF04460D468E
:10371000424BD3E900014FF00002374B02F07CFA34
:103720004FF00002354B05F039F802460B46904643
:1037300099463A4BD3E900014FF00002304B02F0BA
:103740006BFA4FF000022F4B05F028F802460B46AB
:103750004046494604F06EFE02460B4690469946A6
:103760002E4BD3E900014FF00002274B02F054FA30
:103770004FF00002254B05F011F802460B4640467B
:10378000494604F059FE02460B462046294605F0FC
:1037900005F803460C46234AC2E90034F4E11D4B08
:1037A0001B889BB2184604F093FF1B4BD3E90034EF
:1037B0001A46234605F078FA0346002B00F0E48110
:1037C000134B02221A70134B00221A80DCE100BF57
:1037D00000060020A8090020180A00200806002082
:1037E0000906002004060020020600200A06002028
:1037F000B8090020B0090020000014400000184063
:103800000000104000002E4000000840000024404E
:103810002906002020060020C809002048090020B1
:1038200040090020500A0020804B1B78022B3FD11A
:103830007F4B1B889BB2184604F04AFF7D4BD3E9AF
:1038400000341A46234605F01BFA0346002B17D016
:10385000784BD3E900014FF000024FF0000305F070
:103860002DFA0346002B00F08F81734B1B6818461E
:1038700004F040FF03460C46704AC2E9003483E17D
:103880006B4B1B889BB2184604F022FF694BD3E9AF
:1038900000341A46234605F007FA0346002B00F0D1
:1038A0007381624B03221A70614B00221A806BE114
:1038B0005E4B1B78032B40F0A2805D4B1B889BB2B4
:1038C000184604F005FF5E4BD3E900341A46234640
:1038D00005F0D6F90346002B75D0594BD3E900010A
:1038E0004FF000024FF0000305F0E8F90346002B0B
:1038F00000F04A814E4B1B889BB2184604F0E8FE4C
:103900004F4BD3E900341A46234605F071F80346BD
:103910000C461A4623464FF000004A4904F08AFD3F
:1039200003460C46484AC2E90034434B1B6818461C
:1039300004F0E0FE04460D46434BD3E900014FF08E
:103940000002424B02F068F94FF00002404B04F0D5
:1039500025FF02460B46904699463B4BD3E90001B2
:103960004FF000023B4B02F057F94FF000023A4B88
:1039700004F014FF02460B464046494604F05AFD47
:1039800002460B46904699462F4BD3E900014FF073
:103990000002324B02F040F94FF00002304B04F0CD
:1039A000FDFE02460B464046494604F045FD0246F0
:1039B0000B462046294604F0F1FE03460C461F4AFA
:1039C000C2E90034E0E01A4B1B889BB2184604F0B1
:1039D0007FFE1B4BD3E900341A46234605F064F9F9
:1039E0000346002B00F0D080144A4FF000034FF044
:1039F0000004C2E900341B4B01221A70C4E00B4BD7
:103A00001B78042B40F0C080174B1B881BB2002B87
:103A100030DA154B1B881BB29BB25B429BB21AB2C9
:103A2000124B1A80124B01221A702BE0290600203B
:103A3000200600205009002040090020500A0020E4
:103A4000C80900200000F03F480900200000144091
:103A5000000018400000104000002E400000084008
:103A60000000244028060020240600202206002012
:103A70002A060020894B1B881AB2894B1A80894B71
:103A800000221A70864B1B881BB2184604F020FED9
:103A9000854BD3E900341A46234605F0F1F8034676
:103AA000002B6BD0804BD3E900014FF000024FF0A8
:103AB000000305F003F90346002B65D0784B1B8803
:103AC0001BB2184604F004FE774BD3E900341A46C3
:103AD000234604F08DFF03460C46744AC2E90034C5
:103AE000734B1B68184604F005FE04460D466F4BE9
:103AF000D3E900014FF000026E4B02F08DF84FF059
:103B000000026D4B04F04AFE02460B469046994671
:103B1000664BD3E900014FF00002684B02F07CF8DD
:103B20004FF00002664B04F039FE02460B46404659
:103B3000494604F07FFC02460B46904699465B4B93
:103B4000D3E900014FF000025E4B02F065F84FF040
:103B500000025D4B04F022FE02460B4640464946F9
:103B600004F06AFC02460B462046294604F016FE85
:103B700003460C46554AC2E9003405E0484B1B8811
:103B80001BB2184604F0A4FD514BD3E90001514B80
:103B9000D3E900341A46234605F072F80346002B99
:103BA00067D04C4BD3E900014FF000024FF0000307
:103BB00005F084F80346002B00D16BE0444BD3E9B9
:103BC0000001444BD3E900341A46234604F010FFA9
:103BD00003460C46404AC2E900343F4BD3E900019A
:103BE0004FF00002334B02F017F84FF00002324B57
:103BF00004F0D4FD03460C4625461C46364BD3E95B
:103C000000014FF000022D4B02F006F84FF00002C9
:103C10002B4B04F0C3FD02460B462046294604F018
:103C200009FC03460C4625461C462B4BD3E90001F4
:103C30004FF00002234B01F0EFFF4FF00002224B48
:103C400004F0ACFD02460B462046294604F0F4FB86
:103C500003460C4618462146204BD3E900341A4649
:103C6000234604F09BFD03460C461D4AC2E900347E
:103C700010E0174BD3E90001164BD3E900341A4684
:103C8000234605F011F80346002B00D102E0154B46
:103C900001221A6000BFBDE8B08300BF24060020E7
:103CA000220600202A060020C8090020480900201A
:103CB000400900200000144000001840000010409F
:103CC00000002E400000084000002440500A002060
:103CD0006807002060070020700700200807002008
:103CE00078070020900700202DE9F04383B000AF53
:103CF0000346FB71794B1B78002B3AD1784BD3E903
:103D00000001784BD3E900341A46234604F094FBB3
:103D100003460C46184621464FF00002724B04F051
:103D20003DFD03460C461D462646FB79184604F029
:103D3000CFFC6E4BD3E900341A46234604F02EFD27
:103D400003460C461A4623462846314604F026FD13
:103D500003460C4618462146654BD3E900341A4603
:103D6000234604F069FB03460C46614AC2E900346D
:103D700031E05F4BD3E90045594BD3E90001594B82
:103D8000D3E9002304F058FB02460B4610461946BF
:103D90004FF00002544B04F001FD02460B469046E2
:103DA0009946FB79184604F093FC504BD3E9002365
:103DB00004F0F4FC02460B464046494604F0EEFC93
:103DC00002460B462046294604F034FB03460C46C7
:103DD000474AC2E90034424BD3E90034414AC2E9C0
:103DE0000034444B1B78002B3AD1434BD3E90001FC
:103DF000424BD3E900341A46234604F01DFB034628
:103E00000C46184621464FF00002374B04F0C6FC22
:103E100003460C461D462646FB79184604F058FC1E
:103E2000324BD3E900341A46234604F0B7FC03466C
:103E30000C461A4623462846314604F0AFFC03469A
:103E40000C46184621462E4BD3E900341A46234629
:103E500004F0F2FA03460C46294AC2E9003431E084
:103E6000274BD3E90045244BD3E90001234BD3E989
:103E7000002304F0E1FA02460B46104619464FF0C3
:103E80000002194B04F08AFC02460B469046994604
:103E9000FB79184604F01CFC144BD3E9002304F012
:103EA0007DFC02460B464046494604F077FC02463C
:103EB0000B462046294604F0BDFA03460C46104A3C
:103EC000C2E900340C4BD3E900340C4AC2E9003497
:103ED00000BF0C37BD46BDE8F08300BF0A060020D6
:103EE000180A0020180600200000E03FD804002037
:103EF000100600202A060020500A00203806002064
:103F00003006002080B400AF584B1B680133574A7D
:103F10001360574B1B68022B1BD0032B51D0012B76
:103F200040F08580534B1B78DBB2012B11D1524BF3
:103F30001B78DBB2012B0CD1504B1B68012B08D135
:103F40004F4B1B78DBB2002B6CD14D4B01221A700A
:103F500068E0484B1B78DBB2012B0DD1464B1B7838
:103F6000DBB2012B08D1464B1B78DBB2002B27D1EB
:103F7000434B01221A7023E03E4B1B78DBB2012B2E
:103F80000CD13E4B1B68012B08D13D4B1B78DBB29B
:103F9000002B15D13A4B01221A7011E0364B1B78D9
:103FA000DBB2012B40D1354B1B68012B3CD1344B8C
:103FB0001B78DBB2002B37D1314B01221A7033E072
:103FC00032E02C4B1B78DBB2012B12D12A4B1B7831
:103FD000DBB2002B0DD12A4B1B78DBB2002B08D1B2
:103FE000274B01221A70234B00221A70254B002206
:103FF0001A70214B1B78DBB2012B17D11D4B1B789C
:10400000DBB2002B12D11E4B1B78DBB2002B0DD183
:104010001B4B01221A70184B00221A701A4B0022F7
:104020001A7003E000BF02E000BF00E000BF114BC8
:104030001B78DBB2002B06D1144B1B889BB20133DB
:104040009AB2124B1A800C4B1B78DBB2002B06D1B4
:104050000F4B1B889BB201339AB20D4B1A800D4B4C
:1040600001221A7000BFBD4680BC7047A407002023
:104070008009002008060020280600209007002064
:10408000A1070020090600202906002000060020C4
:1040900020060020A00700202DE9B04F82B000AF1D
:1040A0009D4B1B88C3F5A0739C4A13609C4B1B88D7
:1040B000C3F1F0039B4A1360984B1B68002B04D19B
:1040C000984B1B68002B00F03182944B1B68002B2F
:1040D0000BD1944B1B68002B07D193494FF0000282
:1040E0004FF00003C1E9002324E08E4B1B68184603
:1040F00004F0EEFAC7E90001884B1B68184604F08B
:10410000E7FA02460B46D7E9000101F083FD4FF0C4
:104110000002864B04F042FB02460B46104619464D
:1041200073A3D3E9002304F063FC02460B467E49E7
:10413000C1E90023794B1B68002B11DA794B1B680E
:10414000002B0DDA784BD3E900014FF00002784BD9
:1041500004F072F902460B467349C1E9002314E0EA
:104160006E4B1B68002B10DD6E4B1B68002B0CDAAE
:104170006D4BD3E900014FF000026D4B04F05CF988
:1041800002460B466849C1E90023674BD3E90001A9
:104190004FF00002674B04F091FD0346002B0DD059
:1041A000614BD3E900014FF00002624B04F042F989
:1041B00002460B465C49C1E900230CE05A4BD3E9A7
:1041C00000014DA3D3E9002304F036F902460B4663
:1041D0005549C1E90023584B01221A60574B01226F
:1041E0001A604E4B1B68002B07DA4C4B1B685B4276
:1041F0004A4A1360504B00221A604A4B1B68002B3E
:1042000007DA484B1B685B42464A13604B4B00225F
:104210001A60424B1B68772B07DC49494FF00002BC
:104220004FF00003C1E900234BE03C4B1B688C2B93
:1042300006DC43494FF00002424BC1E9002340E055
:10424000364B1B68A22B06DC3D494FF000023E4B6B
:10425000C1E9002335E0314B1B68AE2B06DC384941
:104260004FF00002394BC1E900232AE02B4B1B68B9
:10427000BE2B06DC32494FF00002354BC1E900236A
:104280001FE0264B1B68C22B06DC2D491CA3D3E97B
:104290000023C1E9002314E0204B1B68C82B06DC77
:1042A000274919A3D3E90023C1E9002309E01B4BE7
:1042B0001B68CC2B05DC224915A3D3E90023C1E9F7
:1042C0000023184B1B68772B07DC22494FF00002B4
:1042D0004FF00003C1E900237FE0124B1B688C2BD9
:1042E0003ADC1C494FF00002164BC1E9002374E090
:1042F000F1D4C853FB2109400000000000E07040E9
:1043000000000000002062400000000000A06440A7
:10431000000000000020674000090020A0090020E4
:1043200018090020D8090020980500200080664068
:1043300000807640008056400005002004050020E3
:1043400080050020004050400040554000405A4049
:1043500000405F40880500207D4B1B68A22B06DCD7
:104360007C494FF000027C4BC1E9002335E0784BDB
:104370001B68AE2B06DC77494FF00002774BC1E992
:1043800000232AE0724B1B68BE2B06DC71494FF0FC
:104390000002734BC1E900231FE06D4B1B68C22B69
:1043A00006DC6C4964A3D3E90023C1E9002314E0CF
:1043B000674B1B68C82B06DC664961A3D3E9002361
:1043C000C1E9002309E0624B1B68CC2B05DC614985
:1043D0005DA3D3E90023C1E90023624B1B68002BD6
:1043E00008D1614BD3E90023904683F000495E4B2E
:1043F000C3E900895D4B1B68002B08D1554BD3E9FD
:104400000023144683F00045524BC3E90045564B48
:10441000D3E900014CA3D3E9002304F03BFC03469D
:10442000002B0CD04B4BD3E9000147A3D3E9002369
:1044300004F030FC0346002B01D0FDF745FF4C4B48
:10444000D3E900344B4AC2E90034474BD3E90001B9
:10445000404BD3E900341A46234603F0EBFF0346F2
:104460000C461846214604F049FC0246424B1A60AD
:104470003D4BD3E900349A4684F0004B354BD3E9E9
:1044800000341A4623465046594603F0D3FF0346EC
:104490000C461846214604F031FC0246374B1A60A0
:1044A0002C4BD3E90001304BD3E900341A462346A4
:1044B00003F0C0FF03460C461846214604F01EFCDC
:1044C00002462F4B1A60284BD3E90001214BD3E958
:1044D00000341A46234603F0AFFF03460C46184645
:1044E000214604F00BFC0246264B1A60224B1B6847
:1044F0004FF4FA6202FB03F31F4A13601F4B1B6861
:104500004FF4FA6202FB03F31C4A13601C4B1B6856
:104510004FF4FA6202FB03F3194A1360194B1B684C
:104520004FF4FA6202FB03F3164A136000BF083728
:10453000BD46BDE8B08F00BF000000000020624013
:104540000000000000A06440000000000020674060
:10455000D8090020880500200040554000405A40FE
:1045600000405F4000050020800500200405002079
:104570009805002008070020D4050020D805002059
:10458000DC050020E0050020F0B583B000AF034655
:10459000FB71C14BD3E900341A462346BAA1D1E9D5
:1045A000000104F025FA03460C4618462146BB4B91
:1045B000D3E902341A46234604F0F0F803460C46C9
:1045C0001D462646FB79184604F082F8B44BD3E921
:1045D00000341A46234604F0E1F803460C461A4616
:1045E00023462846314604F003FA03460C46184693
:1045F0002146AC4BD3E900341A46234604F0CEF8EA
:1046000003460C46A84AC2E90034A34BD3E9003460
:104610001A4623469CA1D1E9000104F0E9F90346BA
:104620000C4618462146A14BD3E902341A462346CC
:1046300004F0B4F803460C461D462646FB7918469E
:1046400004F046F8964BD3E900341A46234604F0AA
:10465000A5F803460C461A4623462846314604F080
:10466000C7F903460C46184621468E4BD3E9003461
:104670001A46234604F092F803460C468C4AC2E9D7
:104680000034854BD3E900341A4623467EA1D1E994
:10469000000104F0ADF903460C4618462146854B4F
:1046A000D3E902341A46234604F078F803460C4650
:1046B0001D462646FB79184604F00AF8784BD3E9E4
:1046C00000341A46234604F069F803460C461A469D
:1046D00023462846314604F08BF903460C4618461B
:1046E0002146704BD3E900341A46234604F056F8AD
:1046F00003460C46704AC2E90034674BD3E90034E4
:104700001A46234660A1D1E9000104F071F903467D
:104710000C4618462146694BD3E902341A46234613
:1047200004F03CF803460C461D462646FB79184625
:1047300003F0CEFF5A4BD3E900341A46234604F067
:104740002DF803460C461A4623462846314604F007
:104750004FF903460C4618462146524BD3E9003424
:104760001A46234604F01AF803460C46544AC2E996
:104770000034534BD3E900014D4BD3E900341A46C2
:10478000234603F057FE03460C46184621464FF0D9
:1047900000024C4B04F002F803460C464A4AC2E9B8
:1047A0000034414BD3E90001434BD3E900341A46AE
:1047B000234603F03FFE03460C46184621464FF0C1
:1047C0000002404B03F0EAFF03460C463F4AC2E9B1
:1047D0000034354BD3E90001354BD3E900341A4698
:1047E000234603F029FE03460C4618462146324B69
:1047F000D3E900341A46234603F01EFE03460C4656
:10480000184621462E4BD3E900341A46234603F0BE
:1048100013FE03460C4625461C462D4BD3E90001EA
:104820004FF000022B4B03F0B9FF02460B46204627
:10483000294604F0DDF803460C46274AC2E9003455
:10484000264BD3E9000112A3D3E9002303F0A6FF0E
:1048500003460C46224AC2E90034214BD3E9003416
:104860001846214601F048F9174BD3E900341A469F
:10487000234603F093FF03460C461D462646184B7D
:1048800030E000BFAFF30080F1D4C853FB211940E2
:1048900012E7FAA146DF913F0805002068090020D1
:1048A000D80400201805002080060020E009002020
:1048B000880600208809002090060020F8090020C2
:1048C000980600200000E03FB0060020B806002057
:1048D0001005002000001040C006002058060020EF
:1048E00060060020D3E900341846214601F04EF955
:1048F000884BD3E900341A46234603F04FFF0346A2
:104900000C461A4623462846314603F093FD0346DB
:104910000C46814AC2E90034804BD3E90034184682
:10492000214601F033F97E4BD3E900341A46234681
:1049300003F034FF03460C461D462646774BD3E969
:1049400000341846214601F0D7F8724BD3E9003401
:104950001A46234603F022FF03460C461A46234616
:104960002846314603F068FD03460C466D4AC2E90D
:1049700000346D4BD3E900346C4AC2E900346B4A11
:104980004FF000034FF00004C2E90034624BD3E95A
:104990000001674BD3E900341A46234603F04CFD6F
:1049A00003460C46184621464FF00002614B03F0C7
:1049B000F5FE03460C461D462646FB79184603F0D5
:1049C00087FE5D4BD3E900341A46234603F0E6FE2A
:1049D00003460C461A4623462846314603F0DEFEBF
:1049E00003460C4618462146544BD3E900341A4678
:1049F000234603F021FD03460C46504AC2E9003429
:104A0000484BD3E900014E4BD3E900341A46234604
:104A100003F012FD03460C46184621464FF00002F3
:104A2000444B03F0BBFE03460C461D462646FB796D
:104A3000184603F04DFE404BD3E900341A46234696
:104A400003F0ACFE03460C461A4623462846314680
:104A500003F0A4FE03460C4618462146394BD3E921
:104A600000341A46234603F0E7FC03460C46354A59
:104A7000C2E900342D4BD3E90001334BD3E90034B4
:104A80001A46234603F0D8FC03460C461846214636
:104A90004FF00002274B03F081FE03460C461D46F3
:104AA0002646FB79184603F013FE234BD3E9003466
:104AB0001A46234603F072FE03460C461A46234666
:104AC0002846314603F06AFE03460C461846214646
:104AD0001E4BD3E900341A46234603F0ADFC0346CF
:104AE0000C461A4AC2E900340B4BD3E90034104A91
:104AF000C2E900340B4BD3E90034114AC2E9003457
:104B00000A4BD3E90034104AC2E9003400BF0C3725
:104B1000BD46F0BDB8060020C80600206006002093
:104B2000B0060020D0060020C0060020D8060020D5
:104B3000E00600200000E03FD804002048060020E6
:104B4000E806002050060020F0060020580600204D
:104B5000F0B583B000AF0346FB71B54BD3E900015C
:104B6000B44BD3E900341A46234603F063FC0346F2
:104B70000C46B14AC2E90034AF4BD3E900014FF013
:104B80000002AE4B03F00AFE03460C46AC4AC2E9F3
:104B90000034FB79184603F09BFDAA4BD3E900349F
:104BA0001A46234603F0FAFD03460C4618462146F2
:104BB000A14BD3E900341A46234603F0EFFD034628
:104BC0000C46184621464FF000029C4B03F0E6FDD0
:104BD00003460C46184621469B4BD3E900341A463F
:104BE000234603F029FC03460C46974AC2E90034E9
:104BF0008F4BD3E90001954BD3E900341A46234685
:104C000003F018FC03460C461D462646FB79184661
:104C100003F05EFD8B4BD3E900341A46234603F0C4
:104C2000BDFD03460C461A4623462846314603F08E
:104C3000DFFE03460C46184621464FF00002844B27
:104C400003F0ACFD03460C46824AC2E900347C4BBB
:104C5000D3E900017C4BD3E900341A46234603F024
:104C6000EBFB03460C46184621467A4BD3E9003449
:104C70001A46234603F0DEFB03460C46764AC2E999
:104C800000346B4BD3E90034704AC2E90034734BF3
:104C9000D3E90001724BD3E900341A46234603F0EE
:104CA000C9FB03460C466F4AC2E900346D4BD3E999
:104CB00000014FF00002614B03F070FD03460C460B
:104CC000694AC2E90034FB79184603F001FD5D4BE7
:104CD000D3E900341A46234603F060FD03460C4630
:104CE000184621465F4BD3E900341A46234603F0A9
:104CF00055FD03460C46184621464FF000024F4B27
:104D000003F04CFD03460C4618462146574BD3E9A9
:104D100000341A46234603F08FFB03460C46534AE1
:104D2000C2E900344D4BD3E90001514BD3E90034C3
:104D30001A46234603F07EFB03460C461D462646D4
:104D4000FB79184603F0C4FC3E4BD3E900341A4605
:104D5000234603F023FD03460C461A462346284605
:104D6000314603F045FE03460C46184621464FF0F7
:104D70000002374B03F012FD03460C463D4AC2E9E0
:104D80000034394BD3E90001384BD3E900341A46DB
:104D9000234603F051FB03460C4618462146354B8B
:104DA000D3E900341A46234603F044FB03460C467D
:104DB000314AC2E90034294BD3E900342C4AC2E914
:104DC00000342E4BD3E900012D4BD3E900341A46B1
:104DD000234603F02FFB03460C462A4AC2E900345F
:104DE000284BD3E900014FF00002144B03F0D6FC2E
:104DF00003460C46244AC2E90034FB79184603F006
:104E000067FC104BD3E900341A46234603F0C6FC76
:104E100003460C46184621461A4BD3E900341A467D
:104E2000234603F0BBFC03460C4618462EE000BFA9
:104E30001006002048060020B8070020000024408B
:104E4000C0070020D8040020C80700203007002039
:104E500000003E40D0070020B007002030060020B0
:104E600050060020E0070020E8070020F00700209F
:104E700058070020F8070020D807002078070020F6
:104E800058060020080800201008002021464FF096
:104E900000024FF0000303F081FC03460C46184665
:104EA00021462F4BD3E900341A46234603F0C4FAB7
:104EB00003460C462A4AC2E900342A4BD3E90001D2
:104EC000294BD3E900341A46234603F0B3FA0346CC
:104ED0000C461D462646FB79184603F0F9FB234B8A
:104EE000D3E900341A46234603F058FC03460C4627
:104EF0001A4623462846314603F07AFD03460C46FF
:104F0000184621464FF00002194B03F047FC0346B8
:104F10000C46184AC2E90034174BD3E90001104B84
:104F2000D3E900341A46234603F086FA03460C46BA
:104F3000184621460F4BD3E900341A46234603F0A6
:104F400079FA03460C460D4AC2E90034054BD3E911
:104F50000034054AC2E9003400BF0C37BD46F0BD3D
:104F6000180800207807002080070020D8040020BF
:104F70000000144020080020100800200008002035
:104F8000F8B500AF7A4BD3E900341846214600F05B
:104F9000B3FD784BD3E900341A46234603F0FEFBF9
:104FA00003460C461D462646714BD3E9003418468D
:104FB000214600F0EBFD704BD3E900341A4623463E
:104FC00003F0ECFB03460C461A46234628463146BE
:104FD00003F032FA03460C46684AC2E90034644BD7
:104FE000D3E900341846214600F086FD624BD3E930
:104FF00000341A46234603F0D1FB03460C461D46F7
:1050000026465B4BD3E900341846214600F0BEFD2E
:10501000584BD3E900341A46234603F0BFFB03463E
:105020000C461A4623462846314603F003FA034647
:105030000C46534AC2E90034524BD3E90034524A79
:10504000C2E900344D4BD3E900341A4623464FF0F1
:1050500000004FF0000103F0EDF903460C4618463E
:105060002146474BD3E900341A46234603F0E2F9C0
:1050700003460C46454AC2E90034404BD3E90001DF
:105080003F4BD3E900341A46234603F0D3F90346D5
:105090000C463F4AC2E90034384BD3E90001384B93
:1050A000D3E900341A46234603F0C6F903460C46FA
:1050B000384AC2E90034314BD3E900341A4623465A
:1050C0004FF000004FF0000103F0B4F903460C4626
:1050D000184621462A4BD3E900341A46234603F0EA
:1050E000ABF903460C462C4AC2E90034274BD3E9FE
:1050F00000342A4AC2E90034254BD3E90034284A57
:10510000C2E90034234BD3E90034264AC2E9003413
:10511000214BD3E90034244AC2E90034204BD3E9BF
:1051200000341846214603F0E9FD02461F4B1A6081
:105130001A4BD3E900341846214603F0DFFD02463E
:105140001B4B1A60184BD3E900341846214603F074
:10515000D5FD0246174B1A60124BD3E900341846AE
:10516000214603F0CBFD0246134B1A6000BFF8BD89
:1051700060060020B0070020D80700204808002063
:105180005008002000080020580800206008002077
:10519000680800207008002078080020800800209F
:1051A000880800209008002098080020D4050020DE
:1051B000D8050020DC050020E005002080B485B083
:1051C00000AF78600023FB60344BFB607B689B7909
:1051D000002B4FD03149314B1A687B681B68DB4389
:1051E00013400B602D492D4B5A687B681B68DB43CD
:1051F00013404B607B681B791A46FB681344FB60C5
:10520000FB68FA6811687A6812680A431A602349D1
:10521000224B9A687B681B68DB4313408B601F49F5
:105220001E4BDA687B681B68DB431340CB607B68EE
:105230005B79102B0ED11949184B9A687B681B6853
:1052400013438B601549154BDA687B681B68134361
:10525000CB601DE0114BFB607B685B791A46FB68F5
:105260001344FB60FB68FA6811687A6812680A43A5
:105270001A600DE07B681B791A46FB681344FB60DB
:10528000FB68FA6811687A681268D2430A401A60AB
:1052900000BF1437BD4680BC704700BF003C0140D2
:1052A00080B485B000AF78600023FB730023BB603F
:1052B0000C4B1A687B681340BB600A4B5A697B68C9
:1052C0001340002B05D0BB68002B02D00123FB73D9
:1052D00001E00023FB73FB7B18461437BD4680BCFE
:1052E000704700BF003C014080B483B000AF7860DD
:1052F000034A7B68536100BF0C37BD4680BC7047D2
:10530000003C014080B485B000AF78600023FB739F
:105310000023BB730F237B737B68DB78002B39D0B2
:10532000274BDB68DB431B0ADBB203F00703FB738D
:10533000FB7BC3F10403BB737A7BFB7B42FA03F371
:105340007B737B685B781A46BB7B02FA03F3FB73C3
:105350007B689A787B7B1340DAB2FB7B1343FB7349
:10536000FB7B1B01FB73174A7B681B781344FA7B9A
:1053700083F80023134A7B681B785B09DBB218466D
:105380007B681B7803F01F03012101FA03F342F845
:1053900020300FE00B497B681B785B09DBB21846B5
:1053A0007B681B7803F01F0301229A4000F1200361
:1053B00041F8232000BF1437BD4680BC704700BFB2
:1053C00000ED00E000E100E080B582B002AFFCF744
:1053D0009DFF164B1B68184603F08CF9144B1B7885
:1053E0001A46144B1B780193009202460B46124951
:1053F0001248FCF7B8F8114A00210020FCF791FF91
:105400000F4B1B781A460A4B1B781946094B1B7821
:1054100000930B460B490948FCF7A5F8074A012100
:105420000020FCF77EFF00BFBD4680BDD4080020F1
:10543000C0080020C108002040930008600A002036
:10544000C30800205093000880B500AF0121074831
:1054500000F019FB0346002B05D00121034800F0A2
:105460003BFBFFF7B1FF00BF80BD00BF000C004059
:1054700080B485B000AF786039600023FB817B6821
:105480001B88FB817B68284A934213D07B68274A9C
:1054900093420FD07B68B3F1804F0BD07B68244AD6
:1054A000934207D07B68234A934203D07B68224A09
:1054B000934208D1FB8923F07003FB813B685A8833
:1054C000FB891343FB817B681C4A93420CD07B68A9
:1054D0001B4A934208D0FB8923F44073FB813B684D
:1054E0001A89FB891343FB817B68FA891A803B6820
:1054F0005A687B68DA623B681A887B681A857B6821
:10550000094A934203D07B68084A934204D13B681E
:105510009B7A9AB27B681A867B6801229A8200BFC6
:105520001437BD4680BC70470000014000040140B4
:105530000004004000080040000C00400010004043
:105540000014004080B483B000AF78600B46FB705D
:10555000FB78002B08D07B681B889BB243F00103CB
:105560009AB27B681A8007E07B681B889BB223F0A5
:1055700001039AB27B681A8000BF0C37BD4680BC1D
:105580007047000080B485B000AF786039600023B8
:105590007B810023FB810023BB817B681B8C9BB23A
:1055A00023F001039AB27B681A847B681B8CFB8111
:1055B0007B689B88BB817B681B8B7B817B8923F00D
:1055C00070037B817B8923F003037B813B681A880E
:1055D0007B8913437B81FB8923F00203FB813B68BA
:1055E0009A89FB891343FB813B685A88FB891343E3
:1055F000FB817B681E4A934203D07B681D4A93421D
:1056000023D1FB8923F00803FB813B68DA89FB89FE
:105610001343FB81FB8923F00403FB813B689A88D9
:10562000FB891343FB81BB8923F48073BB81BB8956
:1056300023F40073BB813B681A8ABB891343BB8187
:105640003B685A8ABB891343BB817B68BA899A80BD
:105650007B687A891A833B689A687B685A637B689F
:10566000FA891A8400BF1437BD4680BC704700BF5A
:10567000000001400004014080B485B000AF7860B4
:10568000396000237B810023FB810023BB817B6881
:105690001B8C9BB223F010039AB27B681A847B6840
:1056A0001B8CFB817B689B88BB817B681B8B7B8110
:1056B0007B8923F4E0437B817B8923F440737B81E6
:1056C0003B681B881B029AB27B8913437B81FB8951
:1056D00023F02003FB813B689B891B019AB2FB8965
:1056E0001343FB813B685B881B019AB2FB89134320
:1056F000FB817B68224A934203D07B68214A934214
:105700002BD1FB8923F08003FB813B68DB891B01E4
:105710009AB2FB891343FB81FB8923F04003FB8191
:105720003B689B881B019AB2FB891343FB81BB89B1
:1057300023F48063BB81BB8923F40063BB813B6896
:105740001B8A9B009AB2BB891343BB813B685B8A6F
:105750009B009AB2BB891343BB817B68BA899A804C
:105760007B687A891A833B689A687B689A637B684E
:10577000FA891A8400BF1437BD4680BC704700BF49
:10578000000001400004014080B485B000AF7860A3
:10579000396000237B810023FB810023BB817B6870
:1057A0001B8C9BB223F480739AB27B681A847B684B
:1057B0001B8CFB817B689B88BB817B689B8B7B817F
:1057C0007B8923F070037B817B8923F003037B813A
:1057D0003B681A887B8913437B81FB8923F4007320
:1057E000FB813B689B891B029AB2FB891343FB81B7
:1057F0003B685B881B029AB2FB891343FB817B6881
:10580000224A934203D07B68214A93422BD1FB89E1
:1058100023F40063FB813B68DB891B029AB2FB899E
:105820001343FB81FB8923F48063FB813B689B88E6
:105830001B029AB2FB891343FB81BB8923F480537B
:10584000BB81BB8923F40053BB813B681B8A1B01CE
:105850009AB2BB891343BB813B685B8A1B019AB236
:10586000BB891343BB817B68BA899A807B687A893C
:105870009A833B689A687B68DA637B68FA891A8442
:1058800000BF1437BD4680BC704700BF0000014018
:105890000004014080B485B000AF78603960002317
:1058A000BB8100237B810023FB817B681B8C9BB227
:1058B00023F480539AB27B681A847B681B8C7B81AB
:1058C0007B689B88FB817B689B8BBB81BB8923F4B6
:1058D000E043BB81BB8923F44073BB813B681B88D9
:1058E0001B029AB2BB891343BB817B8923F400530B
:1058F0007B813B689B891B039AB27B8913437B8125
:105900003B685B881B039AB27B8913437B817B686E
:10591000114A934203D07B68104A93420AD1FB8913
:1059200023F48043FB813B681B8A9B019AB2FB896D
:105930001343FB817B68FA899A807B68BA899A83D2
:105940003B689A687B681A647B687A891A8400BF0E
:105950001437BD4680BC7047000001400004014080
:1059600080B485B000AF78600B467B800023FB815C
:105970007B681B8BFB81FB8923F00803FB81FA8981
:105980007B881343FB817B68FA891A8300BF143735
:10599000BD4680BC704780B485B000AF78600B46D0
:1059A0007B800023FB817B681B8BFB81FB8923F4BD
:1059B0000063FB817B881B029AB2FB891343FB8146
:1059C0007B68FA891A8300BF1437BD4680BC7047D4
:1059D00080B485B000AF78600B467B800023FB81EC
:1059E0007B689B8BFB81FB8923F00803FB81FA8991
:1059F0007B881343FB817B68FA899A8300BF143745
:105A0000BD4680BC704780B485B000AF78600B465F
:105A10007B800023FB817B689B8BFB81FB8923F4CC
:105A20000063FB817B881B029AB2FB891343FB81D5
:105A30007B68FA899A8300BF1437BD4680BC7047E3
:105A400080B483B000AF78600B467B8013467B70D8
:105A50007B78002B08D07B689B899AB27B881343A4
:105A60009AB27B689A8109E07B689B899AB27B88AD
:105A7000DB439BB213409AB27B689A8100BF0C371C
:105A8000BD4680BC704780B485B000AF78600B46DF
:105A90007B800023FB730023BB8100237B817B6819
:105AA0001B8A9AB27B881340BB817B689B899AB220
:105AB0007B8813407B81BB89002B05D07B89002B21
:105AC00002D00123FB7301E00023FB73FB7B18462C
:105AD0001437BD4680BC704780B483B000AF786097
