:020000040800F2
:10000000880E002001090008610900086109000844
:10001000610900086109000861090008000000008A
:10002000000000000000000000000000610900085E
:10003000610900080000000061090008551F000860
:1000400061090008610900086109000861090008E8
:100050006109000861090008D91D0008F71D0008A2
:10006000151E0008331E0008511E00086109000813
:1000700061090008610900086109000861090008B8
:1000800061090008610900086109000861090008A8
:100090006109000861090008610900086F1E000875
:1000A0006109000861090008610900086109000888
:1000B000953000086109000861090008610900081D
:1000C0006109000861090008610900086109000868
:1000D000610900086109000851020008D1280008E0
:1000E0006109000861090008610900086109000848
:1000F0006109000861090008610900086109000838
:100100006109000861090008B1560008610900088A
:100110006109000861090008610900086109000817
:100120006109000861090008610900086109000807
:1001300061090008610900086109000861090008F7
:1001400061090008610900086109000861090008E7
:1001500061090008610900086109000861090008D7
:1001600061090008610900086109000861090008C7
:1001700061090008610900086109000861090008B7
:10018000610900086109000880B588B000AF01214D
:10019000012000F04FFE01214FF4003000F068FE16
:1001A0000C237B6102237B7602233B760023BB7604
:1001B0000023FB7607F114031946234801F016FFCC
:1001C00007220321204801F0D3FF072202211E4805
:1001D00001F0CEFF01214FF4003000F049FE1B4832
:1001E00000F08AF94FF416537B6000233B81002313
:1001F0007B810023BB8100233B820C23FB813B1DC1
:100200001946124800F0E2F90121104800F098FA6E
:10021000012240F225510D4800F0D1FA26233B7708
:1002200000237B770023BB770123FB7707F11C03B7
:10023000184604F0FBF90121044800F081FA00BFE0
:100240002037BD4680BD00BF000002400044004092
:1002500098B500AF40F22551754800F0F7FA034613
:10026000002B00F0E280724800F09AFA0346DAB2FE
:10027000704B1A70704B1B78612B08D16D4B1B783B
:100280001A466E4B1A606C4B00221A7010E06A4BD3
:100290001B78622B08D1674B1B781A46684B1A6093
:1002A000654B00221A7003E0624B1A78624B1A7099
:1002B0000C215F4800F063FA624BD3E90034184622
:1002C000214607F045FE0346DBB25F4AA2FB03234B
:1002D0005B09DBB29BB21946554800F050FA0D217C
:1002E000534800F04CFA574BD3E9003418462146E6
:1002F00007F02EFE0346DBB2534AA2FB031252095B
:10030000642101FB02F29B1ADBB29BB219464848FA
:1003100000F035FA0E21464800F031FA4B4BD3E994
:1003200000341846214607F013FE0346DBB2464A66
:10033000A2FB03235B09DBB29BB219463C4800F0E9
:100340001EFA0F213A4800F01AFA404BD3E9003464
:100350001846214607F0FCFD0346DBB23A4AA2FBF1
:1003600003125209642101FB02F29B1ADBB29BB219
:1003700019462F4800F003FA10212D4800F0FFF92C
:10038000334BD3E900341846214607F0E1FD03461C
:10039000DBB22D4AA2FB03235B09DBB29BB21946F9
:1003A000234800F0ECF91121214800F0E8F9284B2E
:1003B000D3E900341846214607F0CAFD0346DBB2F4
:1003C000214AA2FB03125209642101FB02F29B1A8B
:1003D000DBB29BB21946164800F0D1F91D4B1A68E2
:1003E000164B1B689A4205D11B4B1A68144B1B68AD
:1003F0009A4212D0114B1B68184607F0D3FE0246F2
:10040000164B1A600E4B1B68184607F0CBFE0246CF
:10041000134B1A60134B01221A60084B1B680D4ADC
:100420001360074B1B680C4A136000BF98BD00BFE8
:1004300000440040FC040020F4040020E0040020FC
:10044000A0040020C00100201F85EB51C80100203E
:10045000D0010020D8040020D40400204006002051
:10046000800600203806002080B500AFFFF78CFE24
:1004700000BF80BD90B484B000AF03460A46FB7154
:100480001346BB710023FB60BB7903F003039B00A1
:100490000F2202FA03F3FB601649BB799B08DBB21B
:1004A0001846144ABB799B08DBB2023352F823206A
:1004B000FB68DB431A40831C41F823200D48BB79BD
:1004C0009B08DBB21C460B4ABB799B08DBB20233AC
:1004D00052F82320F979BB7903F003039B0001FA5A
:1004E00003F31A43A31C40F8232000BF1037BD4676
:1004F00090BC70470038014080B582B000AF786092
:100500007B682C4A934208D10121102000F00AFD9B
:100510000021102000F006FD47E07B68264A934248
:100520000AD101214FF4003000F0DEFC00214FF42D
:10053000003000F0D9FC38E07B68204A93420AD1B1
:1005400001214FF4802000F0CFFC00214FF48020E7
:1005500000F0CAFC29E07B68194A93420AD10121C4
:100560004FF4002000F0C0FC00214FF4002000F008
:10057000BBFC1AE07B68134A93420AD101214FF475
:10058000801000F0B1FC00214FF4801000F0ACFCB2
:100590000BE07B680C4A934207D10121202000F038
:1005A000C1FC0021202000F0BDFC00BF0837BD4683
:1005B00080BD00BF001001400044004000480040E2
:1005C000004C0040005000400014014080B58AB04B
:1005D00000AF7860396000237B6200233B62002318
:1005E000FB610023BB617B681B8A9BB27B627B6AD9
:1005F00023F440537B623B68DB881A467B6A1343D3
:100600007B627B6A9AB27B681A827B689B899BB209
:100610007B627B6A23F4B05323F00C037B623B685C
:100620009A883B681B8913439AB23B685B891343E2
:100630009BB21A467B6A13437B627B6A9AB27B68E1
:100640009A817B689B8A9BB27B627B6A23F44073AE
:100650007B623B689B891A467B6A13437B627B6A99
:100660009AB27B689A8207F10803184600F03AFBB9
:100670007B68304A934203D07B682F4A934202D171
:100680007B693B6201E03B693B627B689B899BB273
:100690001BB2002B0CDA3A6A13469B0013449A00F3
:1006A0001A443B681B685B00B2FBF3F3FB610BE091
:1006B0003A6A13469B0013449A001A443B681B682D
:1006C0009B00B2FBF3F3FB61FB691C4AA2FB032313
:1006D0005B091B017B627B6A1B09642202FB03F33B
:1006E000FA69D31ABB617B689B899BB21BB2002B52
:1006F0000CDABB69DB003233104AA2FB03235B092F
:1007000003F007037A6A13437B620BE0BB691B01AA
:1007100032330A4AA2FB03235B0903F00F037A6A10
:1007200013437B627B6A9AB27B681A8100BF2837C9
:10073000BD4680BD00100140001401401F85EB51F3
:1007400080B483B000AF78600B46FB70FB78002B61
:1007500008D07B689B899BB243F400539AB27B68B4
:100760009A8107E07B689B899BB223F400539AB27D
:100770007B689A8100BF0C37BD4680BC704780B44F
:1007800083B000AF78600B467B807B88C3F308039F
:100790009AB27B689A8000BF0C37BD4680BC704718
:1007A00080B483B000AF78607B689B889BB2C3F352
:1007B00008039BB218460C37BD4680BC704780B416
:1007C00087B000AF78600B467B8013467B700023B8
:1007D0003B610023FB600023BB6000237B617B68DF
:1007E0007B617B88DBB25B09DBB23B617B8803F01A
:1007F0001F03FB600122FB6802FA03F3BB603B6945
:10080000012B03D17B690C337B6109E03B69022B2F
:1008100003D17B6910337B6102E07B6914337B6118
:100820007B78002B06D07B697A691168BA680A4325
:100830001A6006E07B697A691168BA68D2430A4097
:100840001A6000BF1C37BD4680BC704780B487B0BB
:1008500000AF78600B467B800023FB6000237B6148
:100860000023BB600023FB747B88DBB25B09DBB237
:10087000BB607B8803F01F037B6101227B6902FA66
:1008800003F37B61BB68012B07D17B689B899BB21B
:100890001A467B6913407B6111E0BB68022B07D1CC
:1008A0007B681B8A9BB21A467B6913407B6106E01A
:1008B0007B689B8A9BB21A467B6913407B617B886D
:1008C0001B0A9BB2FB600122FB6802FA03F3FB6088
:1008D0007B681B889BB21A46FB681340FB607B69F0
:1008E000002B05D0FB68002B02D00123FB7401E034
:1008F0000023FB74FB7C18461C37BD4680BC704748
:1009000080B582B000AF114B7B60114B3B6007E0BC
:100910003B681A1D3A607A68111D796012681A6086
:100920003B680C4A9342F3D30B480C494FF000024A
:100930008842B8BF40F8042BFADB01F0A5FE00F0B6
:1009400073F900BF0837BD4680BD00BF108800089E
:1009500000000020FC00002000010020880600208C
:1009600080B400AFFEE7000080B584B000AF012185
:10097000042000F07DFA0023BB800023FB804FF6AB
:10098000FF73BB600023BB810023BB733B1D194673
:10099000054804F0A1FE0121034804F007FF00BF51
:1009A0001037BD4680BD00BF0008004080B586B04E
:1009B00000AFFFF7D9FF7023BB800123FB80022328
:1009C0003B8240F63303FB603B1D1946184804F098
:1009D0000DFF0821164805F0F7F841F26703FB60A8
:1009E0003B1D1946124804F07BFF0821104805F012
:1009F00006F941F69B03FB603B1D19460C4804F0C9
:100A0000F7FF08210A4805F017F942F2CF03FB600F
:100A10003B1D1946064805F071F80821044805F009
:100A200026F900F007F800BF1837BD4680BD00BFAB
:100A30000008004080B582B000AF0121082000F01E
:100A4000F9F902220C21274801F092FB02220D2124
:100A5000244801F08DFB02220E21224801F088FB80
:100A600002220F211F4801F083FB4FF47F433B60BC
:100A70000023BB710023FB7102233B7103237B71B5
:100A80003B461946174801F0B1FA0121022000F057
:100A9000D1F94FF470433B600023BB710023FB711D
:100AA00001233B7103237B713B4619460E4801F03D
:100AB0009DFA0121102000F0BDF94FF470433B6016
:100AC0000023BB710023FB7101233B7103237B7166
:100AD0003B461946054801F089FA00BF0837BD4674
:100AE00080BD00BF000C0240000402400010024024
:100AF00080B584B000AF03463960FB713B68002BC2
:100B0000CCBF01230023FB733B68002BB8BF5B42C3
:100B10003B60FB79013B032B7AD801A252F823F00A
:100B2000310B0008690B0008A10B0008D90B000865
:100B3000FB7B002B0AD04FF48051384801F0FCFABF
:100B40004FF40051354801F005FB09E04FF4005126
:100B5000324801F0F1FA4FF48051304801F0FAFACE
:100B60002F4A3B68536354E0FB7B002B0AD04FF4C1
:100B700080412A4801F0E0FA4FF40041274801F093
:100B8000E9FA09E04FF40041244801F0D5FA4FF4A6
:100B90008041224801F0DEFA214A3B68936338E045
:100BA000FB7B002B0AD04FF480511E4801F0C4FAA1
:100BB0004FF480411B4801F0CDFA09E04FF4804129
:100BC000184801F0B9FA4FF48051164801F0C2FA02
:100BD000134A3B68D3631CE0FB7B002B0AD04FF425
:100BE0000051104801F0A8FA4FF400410D4801F0FF
:100BF000B1FA09E04FF400410A4801F09DFA4FF4C0
:100C00000051084801F0A6FA054A3B68136400E069
:100C100000BF00BF1037BD4680BD00BF00040240CA
:100C2000000800400010024080B500AF01F02CFD2C
:100C300001F0B4F9FFF718FC01F0DCFD01F0E0FA77
:100C400003F096FD01F00EFB01F0F4FF41F2883055
:100C500001F068F901F0C0FD044B1B78502BFBD16B
:100C600004F02EF800BF0023184680BDAB0400201E
:100C700080B483B000AF0346FB71054B00221A70AD
:100C8000034AFB79137000BF0C37BD4680BC704728
:100C90000238024080B582B000AF00233B600023E1
:100CA000FB710023BB71312000F05AF90346BB7180
:100CB0003B6801333B603B68B3F5A06F02D0BB7962
:100CC000002BF0D0312000F04BF90346002B02D06E
:100CD0000123FB7101E00023FB71FB791846083703
:100CE000BD4680BD80B489B000AF78600023BB6191
:100CF00000237B610023FB6102233B610023FB6037
:100D00000223BB60474B9B6803F00C03BB61BB69CC
:100D1000042B07D0082B09D0002B3DD17B68424A19
:100D20001A603DE07B68414A1A6039E03D4B5B68E0
:100D30009B0D03F00103FB603A4B5B6803F03F033C
:100D4000BB60FB68002B0CD0384ABB68B2FBF3F3E6
:100D5000344A52689209C2F3080202FB03F3FB61B2
:100D60000BE0314ABB68B2FBF3F32E4A526892099A
:100D7000C2F3080202FB03F3FB612A4B5B681B0C06
:100D800003F0030301335B003B61FA693B69B2FB8B
:100D9000F3F27B681A6003E07B68234A1A6000BFA5
:100DA000204B9B6803F0F003BB61BB691B09BB616F
:100DB0001F4ABB6913441B78DBB27B617B681A68EE
:100DC0007B69DA407B685A60164B9B6803F4E053FA
:100DD000BB61BB699B0ABB61154ABB6913441B78A5
:100DE000DBB27B617B685A687B69DA407B689A601A
:100DF0000C4B9B6803F46043BB61BB695B0BBB613D
:100E00000B4ABB6913441B78DBB27B617B685A6871
:100E10007B69DA407B68DA6000BF2437BD4680BC5E
:100E2000704700BF003802400024F40000127A002E
:100E30000000002080B483B000AF78600B46FB70E8
:100E4000FB78002B06D00949084B1A6B7B681343CB
:100E50000B6306E00549054B1A6B7B68DB431340C7
:100E60000B6300BF0C37BD4680BC704700380240A2
:100E700080B483B000AF78600B46FB70FB78002B2A
:100E800006D00949084B1A6C7B6813430B6406E0D3
:100E90000549054B1A6C7B68DB4313400B6400BFAC
:100EA0000C37BD4680BC70470038024080B483B028
:100EB00000AF78600B46FB70FB78002B06D0094929
:100EC000084B5A6C7B6813434B6406E00549054B9D
:100ED0005A6C7B68DB4313404B6400BF0C37BD4644
:100EE00080BC70470038024080B483B000AF7860A7
:100EF0000B46FB70FB78002B06D00949084B1A6A99
:100F00007B6813430B6206E00549054B1A6A7B6850
:100F1000DB4313400B6200BF0C37BD4680BC7047FB
:100F20000038024080B483B000AF78600B46FB709D
:100F3000FB78002B06D00949084B5A6A7B6813439B
:100F40004B6206E00549054B5A6A7B68DB43134058
:100F50004B6200BF0C37BD4680BC70470038024072
:100F600080B487B000AF0346FB710023FB60002311
:100F70007B610023FB74FB795B09DBB2FB60FB68E0
:100F8000012B03D1124B1B687B6109E0FB68022B2C
:100F900003D10F4B1B6F7B6102E00D4B5B6F7B61DD
:100FA000FB7903F01F03FB607A69FB6822FA03F305
:100FB00003F00103002B02D00123FB7401E00023A6
:100FC000FB74FB7C18461C37BD4680BC704700BFD5
:100FD0000038024080B483B000AF78600B46FB70ED
:100FE0007B68FA781A70012318460C37BD4680BC1E
:100FF000704780B485B000AF786039600023FB6033
:101000000AE07B685A1C7A603A68511C3960127891
:101010001A70FB680133FB603B681B78002BF0D132
:10102000FB6818461437BD4680BC704780B586B053
:1010300000AFF8607A603B600B46FB7200237B6177
:101040007B68013B7B603B68092B1DD93B681D4ACF
:10105000A2FB0323DB08F97A7A68F868FFF7E6FF5A
:1010600078617B69FA681344FB6010E0FB7A1946EB
:10107000F868FFF7AFFFFB680133FB607B69013362
:101080007B617B68013B7B607B68002BEEDC396811
:101090000C4BA3FB0123DA0813469B0013445B00AF
:1010A000CA1AD3B23033DBB21946F868FFF792FFA1
:1010B00002467B6913447B617B6918461837BD463D
:1010C00080BD00BFCDCCCCCC80B586B000AFF86081
:1010D0007A603B600B46FB7200237B613B68002B10
:1010E00003DA3B685B423B6101E03B683B617B6844
:1010F000013B7B603B69092B1FD93B68002B0CDA55
:101100003B692E4AA2FB0323DB085B42F97A7A682B
:10111000F868FFF7D9FF78610AE03B69274AA2FB2C
:101120000323DB08F97A7A68F868FFF7CDFF786166
:101130007B69FA681344FB6025E03B68002B11DAF9
:101140007B68013B7B600DE0FB7A1946F868FFF78E
:1011500041FFFB680133FB607B6901337B617B6886
:10116000013B7B607B68002BEEDC3B68002B0ADADE
:101170002D21F868FFF72EFF02467B6913447B613F
:10118000FB680133FB6039690C4BA3FB0123DA08D0
:1011900013469B0013445B00CA1AD3B23033DBB250
:1011A0001946F868FFF716FF02467B6913447B6116
:1011B0007B6918461837BD4680BD00BFCDCCCCCC6E
:1011C00080B588B002AFF8607A601A460B46FB72B1
:1011D0001346BB7200237B617B68013B7B603B6AEB
:1011E0001B09002B20D03B6A1B09BA7AF97A0093BD
:1011F00013467A68F868FFF7E3FF02467B691344F9
:101200007B617B69FA681344FB6010E0FB7A194646
:10121000F868FFF7DFFEFB680133FB607B69013391
:101220007B617B68013B7B607B68002BEEDC3B6A6B
:1012300003F00F03092B0BD83B6ADBB203F00F035B
:10124000DBB23033DBB21946F868FFF7C3FE19E0B2
:10125000BB7A002B0BD03B6ADBB203F00F03DBB28F
:101260003733DBB21946F868FFF7B4FE0AE03B6A91
:10127000DBB203F00F03DBB25733DBB21946F86879
:10128000FFF7A8FE7B6901337B617B69184618373D
:10129000BD4680BD80B58AB002AFF860B9607A60A3
:1012A0003B600023BB6100237B61FB68002B00F0E7
:1012B000FC80FB6800221A70F7E07B681B78252B06
:1012C0000BD0FB685A1CFA607A68511C796012785E
:1012D0001A707B6901337B61E7E07B6801331B781F
:1012E000252B0BD1FB685A1CFA6025221A707B68EB
:1012F00002337B607B6901337B61D6E02023FB777F
:101300000023BB777B6801337B607B681B78302BC5
:1013100014D13023FB777B6801337B600EE0BB7F09
:101320001A46920013445B00DAB27B681B781344C0
:10133000DBB2303BBB777B6801337B607B681B781B
:101340002F2B03D97B681B78392BE8D9BA7F7B69AF
:1013500013441A46BB689A4205D9BB68DAB27B6966
:10136000DBB2D31ABB777B681B78583B202B00F28B
:101370008E8001A252F823F0491400088F1400084F
:101380008F1400088F1400088F1400088F140008B1
:101390008F1400088F1400088F1400088F140008A1
:1013A0008F14000879140008FD1300088F1400083A
:1013B0008F1400088F1400088F140008FD13000814
:1013C0008F1400088F1400088F1400088F14000871
:1013D0008F1400088F1400088F1400088F14000861
:1013E0008F140008651400088F14000815140008F5
:1013F0008F1400088F1400082D140008B87F3B6874
:101400001A1D3A601B68F97F0246F868FFF75CFE18
:10141000B8613FE0B87F3B681A1D3A601B68F97FEE
:101420000246F868FFF702FEB86133E0B87F3B6818
:101430001A1D3A601B68F97F009300230246F86882
:10144000FFF7BEFEB86125E0B87F3B681A1D3A6021
:101450001B68F97F009301230246F868FFF7B0FE8E
:10146000B86117E03B681A1D3A601B681946F868B6
:10147000FFF7BFFDB8610DE03B681A1D3A601B68BD
:10148000DBB21946F868FFF7A5FDB86102E04FF03E
:10149000FF3325E07B6801337B60BB69FA68134446
:1014A000FB607A69BB6913447B617B681B78002B06
:1014B00004D07A69BB689A42FFF4FFAE7A69BB68D0
:1014C0009A4203D2FB6800221A7008E0FB68013BD5
:1014D000FB60FB6800221A707B69013B7B617B69C2
:1014E00018462037BD4680BD80B584B000AFF86097
:1014F000B9607A607B68BA686421F868FFF7CAFE51
:10150000034618461037BD4680BD0EB480B585B081
:1015100000AF786007F12003BB60BA68F9697868AA
:10152000FFF7E2FFF860FB6818461437BD46BDE8D8
:10153000804003B07047000090B589B000AF78607C
:1015400001210820FFF776FC01214FF48040FFF7CE
:10155000ADFC00233B770023BB770123FB770323FC
:101560007B770123BB6107F1180319461E4800F081
:101570003DFD1023BB6107F1180319461A4800F01E
:1015800035FD00210320FEF775FF01233B61012398
:10159000BB7500233B7510237B7507F110031846BC
:1015A00002F0A0FF06233B7303237B730023BB736E
:1015B0000123FB7307F10C03184603F037F80B4BBC
:1015C00000221A607A684FF000034FF00004C2E96D
:1015D00002347A684FF000034FF00004C2E900348F
:1015E00000BF2437BD4690BD000C02401805002006
:1015F00090B589B000AF786001210820FFF71AFC90
:1016000001214FF48040FFF751FC00233B7700237A
:10161000BB770123FB7703237B770223BB6107F1B1
:10162000180319461E4800F0E1FC2023BB6107F1B6
:10163000180319461A4800F0D9FC01210320FEF7CF
:1016400019FF02233B610123BB7500233B75102367
:101650007B7507F11003184602F044FF07233B7324
:1016600003237B730023BB730123FB7307F10C037C
:10167000184602F0DBFF0B4B00221A607A684FF02D
:1016800000034FF00004C2E902347A684FF000030F
:101690004FF00004C2E9003400BF2437BD4690BDBE
:1016A000000C02401405002090B589B000AF7860AE
:1016B00001210820FFF7BEFB01214FF48040FFF716
:1016C000F5FB00233B770023BB770123FB77032344
:1016D0007B770423BB6107F1180319461E4800F00D
:1016E00085FC4023BB6107F1180319461A4800F036
:1016F0007DFC02210320FEF7BDFE04233B61012394
:10170000BB7500233B7510237B7507F1100318464A
:1017100002F0E8FE08233B7303237B730023BB73B3
:101720000123FB7307F10C03184602F07FFF0B4BFC
:1017300000221A607A684FF000034FF00004C2E9FB
:1017400002347A684FF000034FF00004C2E900341D
:1017500000BF2437BD4690BD000C02401C05002090
:1017600090B589B000AF786001210820FFF762FBD7
:1017700001214FF48040FFF799FB00233B770023C2
:10178000BB770123FB7703237B770823BB6107F13A
:10179000180319461E4800F029FC8023BB6107F19D
:1017A000180319461A4800F021FC03210320FEF714
:1017B00061FE08233B610123BB7500233B751023A9
:1017C0007B7507F11003184602F08CFE09233B736A
:1017D00003237B730023BB730123FB7307F10C030B
:1017E000184602F023FF0B4B00221A607A684FF074
:1017F00000034FF00004C2E902347A684FF000039E
:101800004FF00004C2E9003400BF2437BD4690BD4C
:10181000000C02401005002090B589B000AF786040
:1018200001210220FFF706FB01214FF48040FFF762
:101830003DFB00233B770023BB770123FB7703238A
:101840007B771023BB6107F1180319461E4800F08F
:10185000CDFB0423BB6107F1180319461A4800F0B9
:10186000C5FB04210120FEF705FE10233B61012387
:10187000BB7500233B7510237B7507F110031846D9
:1018800002F030FE0A233B7303237B730023BB73F8
:101890000123FB7307F10C03184602F0C7FE0B4B44
:1018A00000221A607A684FF000034FF00004C2E98A
:1018B00002347A684FF000034FF00004C2E90034AC
:1018C00000BF2437BD4690BD00040240080500203B
:1018D00090B589B000AF786001210220FFF7AAFA25
:1018E00001214FF48040FFF7E1FA00233B7700230A
:1018F000BB770123FB7703237B772023BB6107F1B1
:10190000180319461E4800F071FB0823BB6107F15C
:10191000180319461A4800F069FB05210120FEF75B
:10192000A9FD20233B610123BB7500233B751023D8
:101930007B7507F11003184602F0D4FD17233B73A3
:1019400003237B730023BB730123FB7307F10C0399
:10195000184602F06BFE0B4B00221A607A684FF0BB
:1019600000034FF00004C2E902347A684FF000032C
:101970004FF00004C2E9003400BF2437BD4690BDDB
:10198000000402400C05002090B583B000AF7860E1
:101990001A4B1B68184605F0B3FF7B68D3E9003487
:1019A0001A46234605F05EFE03460C467A68C2E9F5
:1019B0000234124B1B68184605F0A2FF03460C4682
:1019C0007A68C2E900340D4B1B68002B04DA7B688F
:1019D00001221A7401230CE0084B1B68002B04DD64
:1019E0007B6800221A74002303E07B6802221A74C9
:1019F000022318460C37BD4690BD00BF18050020D5
:101A000090B583B000AF78601A4B1B68184605F09C
:101A100077FF7B68D3E900341A46234605F022FE9F
:101A200003460C467A68C2E90234124B1B6818461A
:101A300005F066FF03460C467A68C2E900340D4B98
:101A40001B68002B04DA7B6801221A7401230CE066
:101A5000084B1B68002B04DD7B6800221A740023EE
:101A600003E07B6802221A74022318460C37BD4635
:101A700090BD00BF1405002090B583B000AF786022
:101A80001A4B1B68184605F03BFF7B68D3E900340E
:101A90001A46234605F0E6FD03460C467A68C2E97D
:101AA0000234124B1B68184605F02AFF03460C4609
:101AB0007A68C2E900340D4B1B68002B04DA7B689E
:101AC00001221A7401230CE0084B1B68002B04DD73
:101AD0007B6800221A74002303E07B6802221A74D8
:101AE000022318460C37BD4690BD00BF1C050020E0
:101AF00090B583B000AF78601A4B1B68184605F0AC
:101B0000FFFE7B68D3E900341A46234605F0AAFDA0
:101B100003460C467A68C2E90234124B1B68184629
:101B200005F0EEFE03460C467A68C2E900340D4B20
:101B30001B68002B04DA7B6801221A7401230CE075
:101B4000084B1B68002B04DD7B6800221A740023FD
:101B500003E07B6802221A74022318460C37BD4644
:101B600090BD00BF1005002080B582B000AF0121FC
:101B7000144800F0C8FA0346FB711021114800F028
:101B8000C2FA0346BB71104B1B78FA799A4214D003
:101B90000D4AFB7913700C4B1B78002B0DD1BB79D0
:101BA000012B05D1094B1B680133084A136004E07F
:101BB000064B1B68013B054A136000BF0837BD4652
:101BC00080BD00BF000C024010000020180500205E
:101BD00080B582B000AF0221144800F094FA0346A9
:101BE000FB712021114800F08EFA0346BB71104BA7
:101BF0001B78FA799A4214D00D4AFB7913700C4B7A
:101C00001B78002B0DD1BB79012B05D1094B1B682B
:101C10000133084A136004E0064B1B68013B054A88
:101C2000136000BF0837BD4680BD00BF000C0240F6
:101C3000110000201405002080B582B000AF0421FF
:101C4000144800F060FA0346FB714021114800F08F
:101C50005AFA0346BB71104B1B78FA799A4214D09A
:101C60000D4AFB7913700C4B1B78002B0DD1BB79FF
:101C7000012B05D1094B1B680133084A136004E0AE
:101C8000064B1B68013B054A136000BF0837BD4681
:101C900080BD00BF000C0240120000201C05002087
:101CA00080B582B000AF0821144800F02CFA03463A
:101CB000FB718021114800F026FA0346BB71104BDE
:101CC0001B78FA799A4214D00D4AFB7913700C4BA9
:101CD0001B78002B0DD1BB79012B05D1094B1B685B
:101CE0000133084A136004E0064B1B68013B054AB8
:101CF000136000BF0837BD4680BD00BF000C024026
:101D0000130000201005002080B582B000AF102124
:101D1000144800F0F8F90346FB710421114800F063
:101D2000F2F90346BB71104B1B78FA799A4214D032
:101D30000D4AFB7913700C4B1B78002B0DD1BB792E
:101D4000012B05D1094B1B680133084A136004E0DD
:101D5000064B1B68013B054A136000BF0837BD46B0
:101D600080BD00BF000402401400002008050020D0
:101D700080B582B000AF2021144800F0C4F90346BA
:101D8000FB710821114800F0BEF90346BB71104BEE
:101D90001B78FA799A4214D00D4AFB7913700C4BD8
:101DA0001B78002B0DD1BB79012B05D1094B1B688A
:101DB0000133084A136004E0064B1B68013B054AE7
:101DC000136000BF0837BD4680BD00BF000402405D
:101DD000150000200C05002080B500AF012002F0A6
:101DE000F3FB0346002B04D0FFF7BEFE012002F0F8
:101DF0000FFC00BF80BD80B500AF022002F0E4FB05
:101E00000346002B04D0FFF7E3FE022002F000FCA3
:101E100000BF80BD80B500AF042002F0D5FB0346B3
:101E2000002B04D0FFF708FF042002F0F1FB00BFF5
:101E300080BD80B500AF082002F0C6FB0346002B32
:101E400004D0FFF72DFF082002F0E2FB00BF80BDA9
:101E500080B500AF102002F0B7FB0346002B04D082
:101E6000FFF752FF102002F0D3FB00BF80BD80B50A
:101E700000AF202002F0A8FB0346002B04D0FFF7A0
:101E800077FF202002F0C4FB00BF80BD80B483B088
:101E900000AF03463960FB7197F90730002B0BDA6E
:101EA0000D49FB7903F00F03043B3A68D2B21201EB
:101EB000D2B20B441A7609E0084997F907303A681C
:101EC000D2B21201D2B20B4483F8002300BF0C3708
:101ED000BD4680BC704700BF00ED00E000E100E0BF
:101EE00080B582B000AF78607B68B3F1807F01D3AA
:101EF000012311E00A4A7B6823F07F43013B5360D2
:101F00000F214FF0FF30FFF7C1FF054B00229A6011
:101F1000034B07221A60002318460837BD4680BDD0
:101F200010E000E080B483B000AF78607B684FF4CD
:101F30007A7202FB03F3064A136000BF044B1B686E
:101F4000002BFBD100BF0C37BD4680BC704700BFE3
:101F50000001002080B400AF0D4B1B6801330C4A18
:101F600013600C4B1B68002B04D00A4B1B68013B11
:101F7000084A1360084B1B68002B04D0064B1B68F3
:101F8000013B054A136000BFBD4680BC704700BFDF
:101F900004010020080100200001002080B500AFEE
:101FA0000F4B1B78002B19D10120FEF761FE00BFFB
:101FB000FEF770FE0346002BFAD00A4B1B680A4A54
:101FC000A2FB03239B0C1846FFF78AFF0346002B56
:101FD00000D0FEE7024B01221A7000E000BF80BD76
:101FE0000C0100209000002083DE1B4380B487B0EA
:101FF00000AF7860396000237B6100233B610023E0
:10200000FB6000237B6176E001227B6902FA03F327
:102010003B613B681A683B691340FB60FA683B69A7
:102020009A4265D17B681A687B695B00032101FADB
:1020300003F3DB431A407B681A607B681A683B68CD
:102040001B7919467B695B0001FA03F31A437B682D
:102050001A603B681B79012B03D03B681B79022B6C
:102060002ED17B689A687B695B00032101FA03F338
:10207000DB431A407B689A607B689A683B685B79AF
:1020800019467B695B0001FA03F31A437B689A6087
:102090007B685A687B699BB2194601238B40DB43FE
:1020A0001A407B685A607B685B683A68927911468F
:1020B0007A6992B201FA02F292B21A437B685A60CC
:1020C0007B68DA687B699BB25B00032101FA03F34A
:1020D000DB431A407B68DA607B68DA683B68DB794F
:1020E00019467B695B0001FA03F31A437B68DA60E7
:1020F0007B6901337B617B690F2B85D900BF1C375E
:10210000BD4680BC704780B485B000AF78600B4698
:102110007B800023FB737B681A697B881340002B4C
:1021200002D00123FB7301E00023FB73FB7B184605
:102130001437BD4680BC704780B483B000AF786070
:102140000B467B807B687A881A8300BF0C37BD46BC
:1021500080BC704780B483B000AF78600B467B8052
:102160007B687A885A8300BF0C37BD4680BC7047B5
:1021700080B485B000AF78600B467B8013467B70DF
:102180000023FB600023BB607A787B8803F00703A1
:102190009B0002FA03F3FB607B88DB089BB21846C6
:1021A0007B88DB089BB21A467B68083253F82220F2
:1021B0007B8803F007039B000F2101FA03F3DB4345
:1021C00002EA03017B6800F1080243F822107B88D1
:1021D000DB089BB21A467B68083253F82220FB6862
:1021E0001343BB607B88DB089BB21A467B680832CE
:1021F000B96843F8221000BF1437BD4680BC704751
:1022000080B582B000AF01210220FEF713FE4FF42B
:1022100070733B6002237B7101233B710023BB7110
:102220000023FB713B4619460C48FFF7DFFE0121F6
:102230000120FEF7FFFDC0233B6002237B710123D9
:102240003B710023BB710023FB713B4619460448D8
:10225000FFF7CCFE00BF0837BD4680BD000402403A
:102260000000024080B582B000AF01210420FEF7DB
:10227000E1FD02233B6002237B7101233B710023BC
:10228000BB710023FB713B4619460348FFF7AEFEC6
:1022900000BF0837BD4680BD0008024080B500AFD2
:1022A00010210D48FFF748FF20210B48FFF752FF90
:1022B00040210A48FFF740FF4FF400710648FFF73E
:1022C0003BFF4FF480710448FFF744FF802103482F
:1022D000FFF732FF00BF80BD000402400000024053
:1022E00080B500AF10210D48FFF734FF20210B48C7
:1022F000FFF722FF40210A48FFF72CFF4FF400713F
:102300000648FFF727FF4FF480710448FFF714FFDA
:1023100080210348FFF71EFF00BF80BD000402407C
:102320000000024080B500AF012000F007F84FF434
:102330007A70FFF7F7FD00BF80BD000080B582B066
:1023400000AF0346FB71FB79002B04D00221064845
:10235000FFF7F2FE03E002210348FFF7FBFE00BF98
:102360000837BD4680BD00BF0008024080B500AF01
:10237000012000F077F84CF2503000F076F900BF01
:1023800080BD80B582B000AF03463A60FB710B465A
:10239000BB71BA79FB791146184600F041F907E0A4
:1023A0003B681B78184600F0CCF83B6801333B6073
:1023B0003B681B78002BF3D100BF0837BD4680BDBA
:1023C00080B483B000AF0346FB71FA790B49134622
:1023D0009B0013449B000B4404331968FA790748A7
:1023E00013469B0013449B00034408331B884B8314
:1023F00000BF0C37BD4680BC704700BF18000020EE
:1024000080B483B000AF0346FB71FA790B491346E1
:102410009B0013449B000B4404331968FA79074866
:1024200013469B0013449B00034408331B880B8313
:1024300000BF0C37BD4680BC704700BF18000020AD
:1024400080B500AF0120FFF7DBFF4FF47A7000F09A
:102450000CF90120FFF7B4FF4FF47A7000F005F992
:1024600000BF80BD80B582B000AF0346FB71002085
:10247000FFF7A6FF97F90730002B03DA0520FFF7D7
:10248000BFFF02E00520FFF79BFFFB7903F040034D
:10249000002B03D00420FFF7B3FF02E00420FFF776
:1024A0008FFFFB7903F02003002B03D00320FFF7FD
:1024B000A7FF02E00320FFF783FFFB7903F010037F
:1024C000002B03D00220FFF79BFF02E00220FFF762
:1024D00077FFFFF7B5FFFB7903F00803002B03D06C
:1024E0000520FFF78DFF02E00520FFF769FFFB796C
:1024F00003F00403002B03D00420FFF781FF02E068
:102500000420FFF75DFFFB7903F00203002B03D0EB
:102510000320FFF775FF02E00320FFF751FFFB796F
:1025200003F00103002B03D00220FFF769FF02E054
:102530000220FFF745FFFFF783FF00BF0837BD46C6
:1025400080BD80B582B000AF0346FB710020FFF76D
:1025500057FF97F90730002B03DA0520FFF750FFEC
:1025600002E00520FFF72CFFFB7903F04003002B6E
:1025700003D00420FFF744FF02E00420FFF720FF10
:10258000FB7903F02003002B03D00320FFF738FF73
:1025900002E00320FFF714FFFB7903F01003002B88
:1025A00003D00220FFF72CFF02E00220FFF708FF14
:1025B000FFF746FFFB7903F00803002B03D005204B
:1025C000FFF71EFF02E00520FFF7FAFEFB7903F09C
:1025D0000403002B03D00420FFF712FF02E00420C5
:1025E000FFF7EEFEFB7903F00203002B03D003207C
:1025F000FFF706FF02E00320FFF7E2FEFB7903F09E
:102600000103002B03D00220FFF7FAFE02E00220B4
:10261000FFF7D6FEFFF714FF00BF0837BD4680BDA9
:1026200080B584B000AF03460A46FB711346BB7108
:10263000FB790F2B01D90023FB71BB79012B01D949
:102640000023BB71BB799B01FB73FA7BFB791343BE
:10265000FB73FB7B63F07F03FB73FB7B1846FFF789
:1026600001FF00BF1037BD4680BD80B483B000AF0E
:10267000786000BF7B685A1E7A60002BFAD100BFD9
:102680000C37BD4680BC704780B500AF124A124B74
:102690001B6843F0010313600F4B00229A600E4A3F
:1026A0000D4B1B6823F0847323F4803313600A4BB3
:1026B0000A4A5A60084A084B1B6823F480231360B7
:1026C000054B0022DA6000F00DF8054B4FF0006278
:1026D0009A6000BF80BD00BF003802401030002467
:1026E00000ED00E080B483B000AF00237B600023E6
:1026F0003B60354A344B1B6843F480331360324BE4
:102700001B6803F400333B607B6801337B603B68EC
:10271000002B03D17B68B3F5A06FF0D12A4B1B6867
:1027200003F40033002B02D001233B6001E00023BF
:102730003B603B68012B42D1234A234B1B6C43F087
:1027400080531364214A214B1B6843F48043136078
:102750001D4A1D4B9B6893601B4A1B4B9B6843F4AF
:1027600000439360184A184B9B6843F4A05393604E
:10277000154B174A5A60144A134B1B6843F0807379
:10278000136000BF104B1B6803F00073002BF9D0DF
:10279000104B40F205621A600B4A0B4B9B6823F00A
:1027A00003039360084A084B9B6843F0020393605D
:1027B00000BF054B9B6803F00C03082BF9D100BF49
:1027C0000C37BD4680BC70470038024000700040A6
:1027D00008544007003C024080B400AF034B1B6824
:1027E000034A136000BFBD4680BC7047180100203B
:1027F0001001002080B588B000AF2F4B00221A7066
:102800002E4B00221A702E4B00221A70012102203A
:10281000FEF710FB01214FF48020FEF729FB4FF457
:1028200040637B6102237B7602233B760023BB76E9
:102830000123FB7607F1140319462248FFF7D6FB64
:1028400007220A211F48FFF793FC07220B211D488E
:10285000FFF78EFC4FF416537B6000233B8100236F
:102860007B810023BB8100233B820C23FB813B1D2A
:1028700019461548FDF7AAFE01211348FDF760FF30
:10288000012240F225511048FDF799FF27233B779D
:1028900000237B770023BB770123FB7707F11C0321
:1028A000184601F0C3FE01210748FDF749FF00BFAC
:1028B0002037BD4680BD00BFC8040020FE040020B4
:1028C000F504002000040240004800400000000021
:1028D000B0B500AF40F225519148FDF7B7FF034670
:1028E000002B00F05E818E48FDF75AFF0346DAB2F6
:1028F0008C4B1A708C4B1B688A4A11788B4AD154C6
:102900008A4B1B78582B03D0884B1B78592B08D146
:10291000874B04221A60844B1B680133824A136080
:102920001CE0824B1B78432B08D1814B05221A6097
:102930007D4B1B6801337C4A13600FE07B4B1B7897
:10294000502B03D0794B1B78532B07D1784B0122A6
:102950001A60754B1B680133734A1360724B1A6817
:10296000734B1B689A4240F00281704B1B78582BC6
:1029700022D16E4B5B78303B9BB21A4692001344D7
:102980001A4691001A460B4613449B009AB2674BB5
:102990009B78303B9BB2194689000B445B009BB28D
:1029A00013449AB2614BDB789BB213449BB2303B29
:1029B0009AB2604B1A80D7E05C4B1B78592B22D11E
:1029C0005A4B5B78303B9BB21A46920013441A462E
:1029D00091001A460B4613449B009AB2534B9B78C6
:1029E000303B9BB2194689000B445B009BB21344F9
:1029F0009AB24E4BDB789BB213449BB2303B9AB2F7
:102A00004D4B1A80B0E0494B1B78432B40F0A0801F
:102A1000464B5B78303B184605F0C4FB03464749FC
:102A2000184605F013FC03461C46404B9B78A3F167
:102A3000300213469B0013445B00184605F0B2FBBE
:102A400003461946204605F0F9FA03461C46374B63
:102A5000DB78303B184605F0A5FB034619462046B7
:102A600005F0ECFA0346184604F05CFF04460D46F8
:102A70002E4B1B79303B184604F042FF26A3D3E9C6
:102A8000002304F0A3FF02460B462046294604F02B
:102A9000EBFD03460C461846214605F079FA02463E
:102AA000274B1A60264B1B68264A1360244B1A6872
:102AB000254B1B681946104605F0BEFA03461A4618
:102AC0001F4B1A601E4B1B684FF00001184605F0A3
:102AD0005BFD0346002B0AD0194B1B681B491846A7
:102AE00005F0ACFA03461A46154B1A603CE0144B4D
:102AF0001B681649184605F065FD0346002B33D0C8
:102B00000F4B1B681149184605F096FA03461A4602
:102B10000B4B1A6028E000BF9A9999999999B93F8F
:102B2000004800402605002020010020200500204C
:102B30001C010020EC040020040500200000C84215
:102B4000C004002018010020100100200000B44340
:102B5000154B1B78502B03D0134B1B78532B03D1F1
:102B6000114B1A78114B1A70114B00221A60114B3D
:102B70001B88B3F5917F11D20E4B1B88B3F5857F6F
:102B80000CD30D4B1B88B3F58C7F07D20A4B1B88E7
:102B9000FA2B03D9094B01221A6002E0074B0022ED
:102BA0001A6000BFB0BD00BF20050020AB040020AC
:102BB00020010020EC040020040500202004002057
:102BC00080B584B000AF01210120FEF751F949F62C
:102BD0008313BB800023FB800923BB600023BB81E0
:102BE0000023BB733B1D19464FF0804002F074FD7B
:102BF00001214FF0804002F0D9FD012201214FF068
:102C0000804003F051F800BF1037BD4680BD80B54D
:102C100082B000AF1C233B7100237B710123BB7189
:102C20000123FB713B1D184601F000FD00BF083772
:102C3000BD4680BD80B500AFFFF7C2FFFFF7E7FFDD
:102C40000D48FEF779FC0D48FEF7D2FC0C48FEF764
:102C50002BFD0C48FEF784FD0B48FEF7DDFD0B480D
:102C6000FEF736FEFDF7A2FEFDF7E4FE00F010F8D9
:102C700000F078F900BF80BD7805002038050020FD
:102C80009005002050050020B0050020C805002058
:102C900090B400AF394A4FF000034FF00004C2E98E
:102CA0000034374A4FF000034FF00004C2E900340B
:102CB000344A4FF000034FF00004C2E90034324AB6
:102CC0004FF000034FF00004C2E900342F4A4FF0E8
:102CD00000034FF00004C2E900342D4A4FF0000316
:102CE0004FF00004C2E900342A4A4FF000034FF0CD
:102CF0000004C2E90034284A4FF000034FF00004FA
:102D0000C2E90034254A4FF000034FF00004C2E945
:102D10000034234A4FF000034FF00004C2E90034AE
:102D2000204A4FF000034FF00004C2E900341E4A6D
:102D30004FF000034FF00004C2E900341B4A4FF08B
:102D400000034FF00004C2E90034194A4FF00003B9
:102D50004FF00004C2E90034164A4FF000034FF070
:102D60000004C2E90034144A4FF000034FF000049D
:102D7000C2E9003400BFBD4690BC7047F801002096
:102D8000000200200802002010020020280200207B
:102D900030020020380200204002002048020020BB
:102DA000500200205802002060020020680200202B
:102DB000C0010020C8010020D001002080B584B0EF
:102DC00000AFC7E90201C7E90023D7E90823D7E923
:102DD000020100F011F8D7E90823D7E9000100F05B
:102DE00049F8D7E90823D7E9060100F07FF800BFCA
:102DF0001037BD4680BD000090B585B000AFC7E973
:102E00000201C7E9002300F0E9F8144AD7E90234C7
:102E1000C2E90034124BD3E900341A462346D7E9FD
:102E2000000104F0FDFE03460C460E4AC2E90034E0
:102E30000D4A4FF000034FF00004C2E900340B4A82
:102E40004FF000034FF00004C2E90034084B0022A9
:102E50001A6000BF1437BD4690BD00BF700200204D
:102E6000B00000208802002090020020A002002074
:102E70000003002090B585B000AFC7E90201C7E9A3
:102E80000023144AD7E90234C2E90034124BD3E9D3
:102E900000341A462346D7E9000104F0C1FE034678
:102EA0000C460E4AC2E900340D4A4FF000034FF0C1
:102EB0000004C2E900340B4A4FF000034FF0000455
:102EC000C2E90034084B00221A6000BF1437BD4627
:102ED00090BD00BF78020020B0000020B0020020AA
:102EE000B8020020C80200200403002090B585B07D
:102EF00000AFC7E90201C7E90023144AD7E9023449
:102F0000C2E90034124BD3E900341A462346D7E90C
:102F1000000104F085FE03460C460E4AC2E9003467
:102F20000D4A4FF000034FF00004C2E900340B4A91
:102F30004FF000034FF00004C2E90034084B0022B8
:102F40001A6000BF1437BD4690BD00BF800200204C
:102F5000B0000020D8020020E0020020F002002093
:102F60000803002090B400AF164A4FF000034FF062
:102F70000004C2E90034144A4FF000034FF000048B
:102F8000C2E90034114A4FF000034FF00004C2E9D7
:102F900000340F4A4FF000034FF00004C2E9003440
:102FA0000C4A4FF000034FF00004C2E900340A4A13
:102FB0004FF000034FF00004C2E9003400BFBD46EB
:102FC00090BC704730030020A80200205803002066
:102FD000D002002080030020F802002098B500AF46
:102FE000FFF756FEFFF7BEFF224B00221A60224A6F
:102FF0004FF000034FF00004C2E902341E4A4FF0C4
:1030000000034FF00004C2E900341C4B00221A6098
:103010001B4A4FF000034FF00004C2E90234184A83
:103020004FF000034FF00004C2E90034154B0022BA
:103030001A60154A4FF000034FF00004C2E9023451
:10304000114A4FF000034FF00004C2E900340F4B67
:1030500000221A600E4A4FF000034FF00004C2E94C
:1030600002340B4A4FF000034FF00004C2E9003471
:1030700000BF98BD18050020780500201405002029
:10308000380500201C0500209005002010050020B8
:103090005005002098B500AF01214FF0804002F0AC
:1030A00026FE0346002B00F0BB8101214FF080403B
:1030B00002F046FEA04B1B68092B0FD19E4B4FF030
:1030C000FF321A609D48FEF75FFC9D48FEF798FCB2
:1030D0009C48FEF7D1FC9C48FEF70AFD964B1B6806
:1030E0000133954A1360994B00221A60974B1B6875
:1030F000012B02D100F0A8F905E000F021FC00F05E
:10310000D1FE01F0A3F8924B1B68184604F0F8FBBF
:10311000904BD3E900341A46234604F0E7FE0346F9
:10312000002B0AD08B4BD3E900341846214604F01B
:10313000E7FE0246864B1A6018E0854B1B6818466E
:1031400004F0DEFB844BD3E900341A46234604F036
:10315000AFFE0346002B09D07F4BD3E9003418465D
:10316000214604F0CDFE0246794B1A607B4B1B686A
:10317000184604F0C5FB774BD3E900341A462346C2
:1031800004F0B4FE0346002B0AD0724BD3E900349E
:103190001846214604F0B4FE0246704B1A6018E04F
:1031A0006E4B1B68184604F0ABFB6B4BD3E9003445
:1031B0001A46234604F07CFE0346002B09D0664BDA
:1031C000D3E900341846214604F09AFE0246634BC8
:1031D0001A60634B1B68184604F092FB5D4BD3E901
:1031E00000341A46234604F081FE0346002B0AD021
:1031F000584BD3E900341846214604F081FE0246BC
:10320000574B1A6018E0564B1B68184604F078FBC1
:10321000514BD3E900341A46234604F049FE0346D5
:10322000002B09D04C4BD3E900341846214604F05A
:1032300067FE02464A4B1A604A4B1B68184604F068
:103240005FFB444BD3E900341A46234604F04EFE9C
:103250000346002B0AD03F4BD3E9003418462146E1
:1032600004F04EFE02463F4B1A6018E03D4B1B68CF
:10327000184604F045FB384BD3E900341A46234680
:1032800004F016FE0346002B09D0334BD3E900347B
:103290001846214604F034FE0246324B1A60324B87
:1032A000D3E90001314BD3E900341A46234604F038
:1032B000D9F903460C462E4AC2E900342C4BD3E917
:1032C00000014FF000022B4B04F010FE0346002BD0
:1032D0000AD0274BD3E900014FF00002264B04F03F
:1032E000E7FD0346002B0AD1214BD3E900014FF043
:1032F0000002224B04F0DCFD0346002B42D0144BAD
:103300001A681F4B1B681344114A1360134B1A6849
:103310001B4B1B681344114A1360114B1A68184B5E
:103320001B6813440E4A13600E4B1A68144B1B683B
:1033300013440C4A136057E0100400207805002065
:10334000380500209005002050050020F0040020E2
:103350008C010020D0000020C80000209001002037
:10336000940100209801002080020020D00100205C
:103370007003002000001C4000806640008066C092
:10338000A8000020274BD3E900014FF00002264B94
:1033900004F08EFD0346002B0AD1224BD3E9000135
:1033A0004FF00002214B04F0A1FD0346002B1BD07F
:1033B0001F4B1A681F4B1B68D31A1D4A13601E4B04
:1033C0001A681C4B1B68D31A1B4A13601B4B1A68E4
:1033D000184B1B68D31A194A1360194B1A68154BFE
:1033E0001B68D31A164A1360164B1B78002B17D193
:1033F0000F4B1B6819460120FDF77AFB0E4B1B682B
:1034000019460220FDF774FB0C4B1B68194603207C
:10341000FDF76EFB0A4B1B6819460420FDF768FB9D
:1034200000BF98BD7003002000001CC000806640F3
:103430008C010020A80000209001002094010020B1
:1034400098010020F50400202DE9B04F82B000AFB4
:103450009D4B1B88C3F5A0739C4A13609C4B1B8833
:10346000C3F1F0039B4A1360984B1B68002B04D1F7
:10347000984B1B68002B00F03182944B1B68002B8B
:103480000BD1944B1B68002B07D193494FF00002DE
:103490004FF00003C1E9002324E08E4B1B6818465F
:1034A00004F02EFAC7E90001884B1B68184604F0A7
:1034B00027FA02460B46D7E9000102F0DFFC4FF085
:1034C0000002864B04F082FA02460B46104619466B
:1034D00073A3D3E9002304F0A3FB02460B467E4905
:1034E000C1E90023794B1B68002B11DA794B1B686B
:1034F000002B0DDA784BD3E900014FF00002784B36
:1035000004F0B2F802460B467349C1E9002314E007
:103510006E4B1B68002B10DD6E4B1B68002B0CDA0A
:103520006D4BD3E900014FF000026D4B04F09CF8A5
:1035300002460B466849C1E90023674BD3E9000105
:103540004FF00002674B04F0D1FC0346002B0DD076
:10355000614BD3E900014FF00002624B04F082F8A6
:1035600002460B465C49C1E900230CE05A4BD3E903
:1035700000014DA3D3E9002304F076F802460B4680
:103580005549C1E90023584B01221A60574B0122CB
:103590001A604E4B1B68002B07DA4C4B1B685B42D2
:1035A0004A4A1360504B00221A604A4B1B68002B9A
:1035B00007DA484B1B685B42464A13604B4B0022BC
:1035C0001A60424B1B68772B07DC49494FF0000219
:1035D0004FF00003C1E900234BE03C4B1B688C2BF0
:1035E00006DC43494FF00002424BC1E9002340E0B2
:1035F000364B1B68A22B06DC3D494FF000023E4BC8
:10360000C1E9002335E0314B1B68AE2B06DC38499D
:103610004FF00002394BC1E900232AE02B4B1B6815
:10362000BE2B06DC32494FF00002354BC1E90023C6
:103630001FE0264B1B68C22B06DC2D491CA3D3E9D7
:103640000023C1E9002314E0204B1B68C82B06DCD3
:10365000274919A3D3E90023C1E9002309E01B4B43
:103660001B68CC2B05DC224915A3D3E90023C1E953
:103670000023184B1B68772B07DC22494FF0000210
:103680004FF00003C1E900237FE0124B1B688C2B35
:103690003ADC1C494FF00002164BC1E9002374E0EC
:1036A000F1D4C853FB2109400000000000E0704045
:1036B00000000000002062400000000000A0644004
:1036C0000000000000206740EC0400206805002096
:1036D0000405002074050020500100200080664091
:1036E0000080764000805640D8000020DC0000209A
:1036F00038010020004050400040554000405A40F2
:1037000000405F40400100207D4B1B68A22B06DC7F
:103710007C494FF000027C4BC1E9002335E0784B37
:103720001B68AE2B06DC77494FF00002774BC1E9EE
:1037300000232AE0724B1B68BE2B06DC71494FF058
:103740000002734BC1E900231FE06D4B1B68C22BC5
:1037500006DC6C4964A3D3E90023C1E9002314E02B
:10376000674B1B68C82B06DC664961A3D3E90023BD
:10377000C1E9002309E0624B1B68CC2B05DC6149E1
:103780005DA3D3E90023C1E90023624B1B68002B32
:1037900008D1614BD3E90023904683F000495E4B8A
:1037A000C3E900895D4B1B68002B08D1554BD3E959
:1037B0000023144683F00045524BC3E90045564BA5
:1037C000D3E900014FF00002554B04F07BFB0346A8
:1037D000002B0CD04B4BD3E900014FF00002504BB3
:1037E00004F070FB0346002B01D0FEF757FD4D4B54
:1037F000D3E900344C4AC2E90034474BD3E9000115
:10380000404BD3E900341A46234603F02BFF03460E
:103810000C461846214604F073FB0246434B1A60DF
:103820003D4BD3E900349A4684F0004B354BD3E945
:1038300000341A4623465046594603F013FF034608
:103840000C461846214604F05BFB0246384B1A60D2
:103850002C4BD3E90001304BD3E900341A46234600
:1038600003F000FF03460C461846214604F048FBCF
:103870000246304B1A60284BD3E90001214BD3E9B3
:1038800000341A46234603F0EFFE03460C46184662
:10389000214604F035FB0246274B1A60234B1B6878
:1038A0004FF4FA6202FB03F3204A1360204B1B68BB
:1038B0004FF4FA6202FB03F31D4A13601D4B1B68B1
:1038C0004FF4FA6202FB03F31A4A13601A4B1B68A7
:1038D0004FF4FA6202FB03F3174A136000BF083784
:1038E000BD46BDE8B08F00BF000000000020624070
:1038F0000000000000A064400000000000206740BD
:1039000074050020400100200040554000405A400E
:1039100000405F40D800002038010020DC0000207B
:103920000040504050010020800200208C01002007
:103930009001002094010020980100200000000068
:10394000F8B500AFBE4BD3E900341A462346B6A102
:10395000D1E9000104F064F903460C4618462146FB
:10396000B84BD3E902341A46234604F02FF8034635
:103970000C4618462146B44BD3E900341A46234678
:1039800004F04EF903460C4618462146AF4BD3E9E6
:1039900000341A46234604F019F803460C46AC4A94
:1039A000C2E90034A64BD3E900341A4623469EA14F
:1039B000D1E9000104F034F903460C4618462146CB
:1039C000A44BD3E902341A46234603F0FFFF034613
:1039D0000C46184621469C4BD3E900341A46234630
:1039E00004F01EF903460C4618462146974BD3E9CE
:1039F00000341A46234603F0E9FF03460C46964A74
:103A0000C2E900348E4BD3E900341A46234686A11E
:103A1000D1E9000104F004F903460C46184621469A
:103A20008E4BD3E902341A46234603F0CFFF0346F8
:103A30000C4618462146844BD3E900341A462346E7
:103A400004F0EEF803460C46184621467F4BD3E9B6
:103A500000341A46234603F0B9FF03460C46804A59
:103A6000C2E90034764BD3E900341A4623466EA1EE
:103A7000D1E9000104F0D4F803460C46184621466B
:103A8000784BD3E902341A46234603F09FFF0346DE
:103A90000C46184621466C4BD3E900341A4623469F
:103AA00004F0BEF803460C4618462146674BD3E99E
:103AB00000341A46234603F089FF03460C466A4A3F
:103AC000C2E90034694A4FF000034FF00004C2E934
:103AD0000034674BD3E90001664BD3E900341A4642
:103AE000234603F0BFFD03460C46184621464FF01F
:103AF0000002614B03F06AFF03460C465F4AC2E9CD
:103B000000345C4BD3E90001594BD3E900341A4629
:103B1000234603F0A9FD03460C461846214644A35C
:103B2000D3E9002303F052FF03460C4625461C460A
:103B3000534BD3E9000102460B4603F095FD0246C4
:103B40000B462046294604F06BF803460C464D4AC6
:103B5000C2E900344C4BD3E9000137A3D3E9002379
:103B600003F034FF03460C46484AC2E90034474B91
:103B7000D3E900341846214602F0F2F83B4BD3E972
:103B800000341A46234603F021FF03460C461D4627
:103B900026463E4BD3E900341846214602F02AF966
:103BA000364BD3E900341A46234603F00FFF034691
:103BB0000C461A4623462846314603F053FD034679
:103BC0000C46334AC2E90034304BD3E9003418467E
:103BD000214602F00FF9254BD3E900341A4623465B
:103BE00003F0F4FE03460C461D462646274BD3E958
:103BF00000341846214602F0B3F8204BD3E90034D4
:103C00001A46234603F0E2FE03460C461A462346B4
:103C10002846314603F028FD03460C461D4AC2E9FA
:103C2000003439E0AFF30080F1D4C853FB211940D0
:103C300072F90FE9B7AFF53F12E7FAA146DF913FFE
:103C4000E000002038050020B0000020F000002037
:103C5000F801002078050020000200205005002017
:103C600008020020900500201002002028020020F9
:103C700020020020180200200000E03F3002002057
:103C8000E800002038020020D0010020D8010020E8
:103C90004002002048020020754BD3E90034754AE9
:103CA000C2E90034734A4FF000034FF00004C2E948
:103CB0000034714BD3E90001704BD3E900341A464C
:103CC000234603F0D1FC03460C46184621464FF02C
:103CD00000026B4B03F07AFE03460C461846214661
:103CE000684BD3E900341A46234603F06FFE0346BF
:103CF0000C4618462146644BD3E900341A46234645
:103D000003F0B2FC03460C465F4AC2E900345F4B45
:103D1000D3E900015E4BD3E900341A46234603F091
:103D2000A3FC03460C46184621464FF00002544BB4
:103D300003F04CFE03460C4618462146514BD3E98E
:103D400000341A46234603F041FE03460C4618464B
:103D50002146504BD3E900341A46234603F084FC35
:103D600003460C464B4AC2E90034424BD3E90001FA
:103D7000494BD3E900341A46234603F075FC034649
:103D80000C46184621464FF000023D4B03F01EFE44
:103D900003460C46184621463A4BD3E900341A46EE
:103DA000234603F013FE03460C46184621462EA375
:103DB000D3E9002303F00AFE03460C4618462146C9
:103DC000364BD3E900341A46234603F04DFC034634
:103DD0000C46324AC2E90034304BD3E900014FF0BF
:103DE00000022F4B04F078F80346002B0DD02B4B2C
:103DF000D3E900014FF00002294B03F033FC0346E6
:103E00000C46264AC2E9003418E0244BD3E90001ED
:103E10004FF000024FF0000304F04AF80346002B75
:103E20000CD01E4BD3E900014FF000021C4B03F0F5
:103E30001BFC03460C46194AC2E900340E4BD3E979
:103E400000340E4AC2E90034104BD3E90034104A62
:103E5000C2E90034074BD3E900340F4AC2E9003409
:103E600000BFF8BDAFF30080775AF01ADCA54C40D4
:103E7000380200205002002040020020580200209A
:103E80000000E03FB0000020C001002048020020F8
:103E900060020020C801002068020020D00100203C
:103EA0000080764098B500AFAF4BD3E90001AF4B2F
:103EB000D3E900341A46234603F0D4FB03460C46EC
:103EC000AB4AC2E90034AA4BD3E900014FF000022B
:103ED000A84B03F07BFD03460C46A74AC2E9003419
:103EE000A34BD3E90001A54BD3E900341A4623467E
:103EF00003F06CFD03460C46184621464FF00002C5
:103F00009F4B03F063FD03460C46184621469D4B2C
:103F1000D3E900341A46234603F0A6FB03460C46B9
:103F2000984AC2E90034984BD3E90001974BD3E992
:103F300000341A46234603F095FB03460C46184608
:103F400021468E4BD3E900341A46234603F068FE1F
:103F500003460C46184621464FF000028C4B03F0F6
:103F600035FD03460C468B4AC2E90034824BD3E947
:103F70000001884BD3E900341A46234603F072FB54
:103F800003460C46184621467E4BD3E900341A46B8
:103F9000234603F069FB03460C467F4AC2E900341E
:103FA000794BD3E90034794AC2E900347B4BD3E939
:103FB00000017B4BD3E900341A46234603F052FB41
:103FC00003460C46774AC2E90034764BD3E9000138
:103FD0004FF00002674B03F0F9FC03460C46724AAF
:103FE000C2E900346F4BD3E90001644BD3E90034DC
:103FF0001A46234603F0EAFC03460C4618462146BF
:104000004FF000025E4B03F0E1FC03460C461846FD
:104010002146664BD3E900341A46234603F024FBBD
:1040200003460C46614AC2E90034614BD3E9000102
:10403000604BD3E900341A46234603F013FB0346D2
:104040000C46184621464D4BD3E900341A46234608
:1040500003F0E6FD03460C46184621464FF00002E9
:104060004B4B03F0B3FC03460C46534AC2E9003401
:104070004D4BD3E90001504BD3E900341A46234697
:1040800003F0F0FA03460C4618462146474BD3E9A5
:1040900000341A46234603F0E7FA03460C46474A23
:1040A000C2E90034424BD3E90034424AC2E9003449
:1040B000434BD3E90001434BD3E900341A4623466E
:1040C00003F0D0FA03460C463F4AC2E900343E4BA7
:1040D000D3E900014FF00002294B03F077FC0346BF
:1040E0000C463A4AC2E90034374BD3E90001234B6E
:1040F000D3E900341A46234603F068FC03460C4615
:10410000184621464FF000024FF0000303F05EFC1A
:1041100003460C46184621462D4BD3E900341A4677
:10412000234603F0A1FA03460C46294AC2E90034AB
:10413000284BD3E90001284BD3E900341A46234623
:1041400003F090FA03460C46184621460B4BD3E980
:1041500000341A46234603F063FD03460C46184616
:1041600021464FF0000239E070020020C00100201B
:104170002003002000002E4028030020B000002073
:104180000000244030030020A0020020A8020020EC
:10419000000034403803002018030020780200207B
:1041A000C8010020480300205003002058030020CD
:1041B000C8020020D002002060030020400300203D
:1041C00080020020D001002070030020780300202E
:1041D00080030020F0020020F8020020144B03F0BE
:1041E000F5FB03460C46134AC2E90034124BD3E9EF
:1041F0000001104BD3E900341A46234603F032FA8B
:1042000003460C46184621460C4BD3E900341A46A7
:10421000234603F029FA03460C46094AC2E9003452
:10422000084BD3E90034084AC2E9003400BF98BD06
:104230000000144088030020780300208003002041
:1042400068030020F0020020F8020020F8B500AF5B
:104250007A4BD3E900341846214601F081FD784BB2
:10426000D3E900341A46234603F0B0FB03460C465C
:104270001D462646714BD3E900341846214601F00D
:10428000B9FD704BD3E900341A46234603F09EFB78
:1042900003460C461A4623462846314603F0E4F905
:1042A00003460C46684AC2E90034644BD3E9003443
:1042B0001846214601F054FD624BD3E900341A46FA
:1042C000234603F083FB03460C461D4626465B4B04
:1042D000D3E900341846214601F08CFD584BD3E950
:1042E00000341A46234603F071FB03460C461A4677
:1042F00023462846314603F0B5F903460C46534A97
:10430000C2E90034524BD3E90034524AC2E90034C6
:104310004D4BD3E900341A4623464FF000004FF0CE
:10432000000103F09FF903460C4618462146474B0F
:10433000D3E900341A46234603F094F903460C46A9
:10434000454AC2E90034404BD3E900013F4BD3E971
:1043500000341A46234603F085F903460C463F4ACB
:10436000C2E90034384BD3E90001384BD3E90034BB
:104370001A46234603F078F903460C46384AC2E948
:104380000034314BD3E900341A4623464FF0000085
:104390004FF0000103F066F903460C46184621462B
:1043A0002A4BD3E900341A46234603F05DF903464D
:1043B0000C462C4AC2E90034274BD3E900342A4A80
:1043C000C2E90034254BD3E90034284AC2E900345D
:1043D000234BD3E90034264AC2E90034214BD3E908
:1043E0000034244AC2E90034204BD3E90034184693
:1043F000214603F085FD02461F4B1A601A4BD3E994
:1044000000341846214603F07BFD02461B4B1A6020
:10441000184BD3E900341846214603F071FD0246DB
:10442000174B1A60124BD3E900341846214603F0AB
:1044300067FD0246134B1A6000BFF8BDD80100208B
:104440001803002040030020B0030020B803002020
:1044500068030020C0030020C8030020D003002010
:10446000D8030020E0030020E8030020F003002030
:10447000F8030020000400208C010020900100209F
:10448000940100209801002090B585B004AF4FF052
:1044900000034FF00004CDE902344FF000034FF069
:1044A0000004CDE900344FF000024FF000034FF05C
:1044B00000004FF00001FEF781FC00210120FCF715
:1044C00017FB00210220FCF713FB00210320FCF75F
:1044D0000FFB00210420FCF70BFB00BF0437BD4697
:1044E00090BD000080B485B000AF78600023FB6011
:1044F000344BFB607B689B79002B4FD03149314BAB
:104500001A687B681B68DB4313400B602D492D4BF9
:104510005A687B681B68DB4313404B607B681B79E0
:104520001A46FB681344FB60FB68FA6811687A68F6
:1045300012680A431A602349224B9A687B681B68F9
:10454000DB4313408B601F491E4BDA687B681B6896
:10455000DB431340CB607B685B79102B0ED119498C
:10456000184B9A687B681B6813438B601549154B81
:10457000DA687B681B681343CB601DE0114BFB605E
:104580007B685B791A46FB681344FB60FB68FA683A
:1045900011687A6812680A431A600DE07B681B791B
:1045A0001A46FB681344FB60FB68FA6811687A6876
:1045B0001268D2430A401A6000BF1437BD4680BC5F
:1045C000704700BF003C014080B485B000AF786008
:1045D0000023FB730023BB600C4B1A687B681340FD
:1045E000BB600A4B5A697B681340002B05D0BB683F
:1045F000002B02D00123FB7301E00023FB73FB7B44
:1046000018461437BD4680BC704700BF003C0140CF
:1046100080B483B000AF7860034A7B68536100BF09
:104620000C37BD4680BC7047003C014080B485B06B
:1046300000AF78600023FB730023BB730F237B73F1
:104640007B68DB78002B39D0274BDB68DB431B0A08
:10465000DBB203F00703FB73FB7BC3F10403BB7303
:104660007A7BFB7B42FA03F37B737B685B781A46A9
:10467000BB7B02FA03F3FB737B689A787B7B134066
:10468000DAB2FB7B1343FB73FB7B1B01FB73174A03
:104690007B681B781344FA7B83F80023134A7B68FA
:1046A0001B785B09DBB218467B681B7803F01F039D
:1046B000012101FA03F342F820300FE00B497B6837
:1046C0001B785B09DBB218467B681B7803F01F037D
:1046D00001229A4000F1200341F8232000BF143743
:1046E000BD4680BC704700BF00ED00E000E100E087
:1046F00080B582B002AFFDF739FE164B1B68184635
:1047000003F010F9144B1B781A46144B1B780193D5
:10471000009202460B4612491248FCF7F6FE114A77
:1047200000210020FDF72DFE0F4B1B781A460A4B87
:104730001B781946094B1B7800930B460B49094817
:10474000FCF7E3FE074A01210020FDF71AFE00BF37
:10475000BD4680BDC0040020A8040020A90400209C
:10476000D8850008E8050020AB040020E885000893
:1047700080B584B000AF01210420FCF75BFB04236B
:10478000BB6000233B7303237B730023BB730223B3
:10479000FB7307F1080319464E48FDF727FC082371
:1047A000BB6000233B7303237B730023BB73022393
:1047B000FB7307F1080319464648FDF717FC102361
:1047C000BB6000233B7303237B730023BB73022373
:1047D000FB7307F1080319463E48FDF707FC202349
:1047E000BB6000233B7303237B730023BB73022353
:1047F000FB7307F1080319463648FDF7F7FB402322
:10480000BB6000233B7303237B730023BB73022332
:10481000FB7307F1080319462E48FDF7E7FB8023D9
:10482000BB6000233B7303237B730023BB73022312
:10483000FB7307F1080319462648FDF7D7FB4FF431
:104840008073BB6000233B7303237B730023BB7324
:104850000223FB7307F1080319461E48FDF7C6FB48
:104860004FF40073BB6000233B7303237B7300236F
:10487000BB730223FB7307F1080319461548FDF7C4
:10488000B5FB4FF48063BB6000233B7303237B7352
:104890000023BB730223FB7307F1080319460D487D
:1048A000FDF7A4FB01210820FCF7C4FA4FF4C06314
:1048B0003B6000233B710023BB710223FB71032388
:1048C0007B713B4619460448FDF790FB00BF10374B
:1048D000BD4680BD00080240000C02400000000000
:1048E00090B585B004AF804B40F21B121A60E3E034
:1048F0007E4B1B8803F10A027B4B1B689A4268DAE5
:104900004FF000024FF0000375A1D1E90001FEF75E
:10491000EDFA14E0754B1B885A1F734B1B689A42C3
:104920000DDD4FF000024FF000034FF000004FF09C
:104930000001FEF7DBFA6E4B00221A6006E06B4BBB
:104940001B881A46684B1B689A42E3DB684B1B685E
:10495000002B39D14FF000024FF000034FF0000060
:104960004FF00001FEF7C2FA624B1B68002B20D10A
:10497000FDF794FC4FF000034FF00004CDE9023442
:104980004FF000034FF00004CDE9003454A3D3E905
:1049900000234FF000004FF00001FEF70FFA4FF434
:1049A000FA60FDF7BFFAFFF76FFD524B01221A6064
:1049B00090E0514B1B68012B06D14E4B1B68012B1D
:1049C00002D1FFF761FD85E04A4B1B68012B73D1D3
:1049D00080E0464B1B88A3F10A02434B1B689A42B6
:1049E00068DD4FF000024FF000034FF00000434934
:1049F000FEF77CFA14E03D4B1B885A1D3A4B1B68AE
:104A00009A420DDA4FF000024FF000034FF0000021
:104A10004FF00001FEF76AFA354B00221A6006E0FB
:104A2000324B1B881A46304B1B689A42E3DC304BF2
:104A30001B68002B39D14FF000024FF000034FF0FC
:104A400000004FF00001FEF751FA2A4B1B68002BC3
:104A500020D1FDF723FC4FF000034FF00004CDE917
:104A600002344FF000034FF00004CDE900341CA3E2
:104A7000D3E900234FF000004FF00001FEF79EF94C
:104A80004FF4FA60FDF74EFAFFF7FEFC194B0122D6
:104A90001A601FE0184B1B68012B06D1154B1B68D1
:104AA000012B02D1FFF7F0FC14E0124B1B68012B25
:104AB00002D10FE0FFF7E8FC0C4B1B88002B09D05C
:104AC0000F4B1B88002B05D00B4B1B68002B3FF4B2
:104AD0000FAFFFE700BF0437BD4690BDAFF30080C6
:104AE0000000000000C06240BC040020EC04002074
:104AF00038040020340400202004002000C062C0DC
:104B00000405002080B584B000AF0023FB60654B36
:104B100040F219121A60BCE0634B1B8803F10A02D1
:104B2000604B1B689A4251DA4FF000024FF00003CD
:104B30004FF000005D49FEF7D9F914E05A4B1B888D
:104B4000A3F10A02574B1B689A420CDD4FF000029A
:104B50004FF000034FF000004FF00001FEF7C6F9E0
:104B60000123FB6006E0504B1B881A464D4B1B6827
:104B70009A42E3DBFB68002B40F08B804FF0000291
:104B80004FF000034FF000004FF00001FEF7AEF9C8
:104B90000023BB6005E0FDF781FB454B1B68012B43
:104BA00012D0414B1B88B3F5AF7F72D23E4B1B88AE
:104BB000E62B6ED93F4B1B88B3F5AF7F69D23D4BD7
:104BC0001B88E62BE7D864E000BF62E0364B1B8809
:104BD0001A46344B1B689A4251DD4FF000024FF0E9
:104BE00000034FF000003449FEF780F914E02E4B2B
:104BF0001B8803F10A022B4B1B689A420CDA4FF018
:104C000000024FF000034FF000004FF00001FEF7EC
:104C10006DF90123FB6007E0234B1B88A3F114020D
:104C2000204B1B689A42E2DCFB68002B31D14FF02D
:104C300000024FF000034FF000004FF00001FEF7BC
:104C400055F900237B6005E0FDF728FB184B1B6836
:104C5000012B12D0144B1B88B3F5AF7F19D2124B26
:104C60001B88E62B15D9134B1B88B3F5AF7F10D2E9
:104C7000104B1B88E62BE7D80BE000BF09E04FF094
:104C800000024FF000034FF000004FF00001FEF76C
:104C90002DF9074B1B68002B3FF43EAF00BF1037C8
:104CA000BD4680BDBC040020EC040020000059403B
:104CB0002004002004050020000059C0000000006E
:104CC00090B585B004AF4FF000034FF00004CDE97C
:104CD00002344FF000034FF00004CDE900344FF0F0
:104CE0000002C64B4FF000004FF00001FEF766F8DF
:104CF00040F6B830FDF716F94FF000034FF000040E
:104D0000CDE902344FF00003BD4CCDE900344FF043
:104D100000024FF000034FF000004FF00001FEF7DB
:104D20004DF800BFB74B1B68B749184603F04AFC63
:104D30000346002B09D0B34B1B684FF08141184646
:104D400003F022FC0346002BECD14FF000034FF0A0
:104D50000004CDE902344FF000034FF00004CDE928
:104D600000344FF00002A54B4FF000004FF000015F
:104D7000FEF724F840F69800FDF7D4F84FF0000352
:104D80004FF00004CDE902344FF000034FF000046F
:104D9000CDE900344FF000024FF000034FF0000067
:104DA0004FF00001FEF70AF84FF4FA70FDF7BAF879
:104DB0004FF000034FF00004CDE902344FF0000340
:104DC000924CCDE900344FF000024FF000034FF059
:104DD00000004FF00001FDF7F1FF00BF894B1B6899
:104DE000012214468A49184603F0ECFB0346002BC7
:104DF00001D100231C46E3B283F00103DBB2002B98
:104E0000ECD1804B1B68012214468249184603F0FE
:104E1000BBFB0346002B01D100231C46E3B283F009
:104E20000103DBB2002BD9D14FF000034FF0000497
:104E3000CDE902344FF00003774CCDE900344FF058
:104E400000024FF000034FF000004FF00001FDF7AB
:104E5000B5FF6420FDF766F84FF000034FF0000443
:104E6000CDE902344FF000034FF00004CDE90034E7
:104E70004FF000024FF000034FF000004FF0000130
:104E8000FDF79CFF4FF4FA70FDF74CF84FF000036C
:104E90004FF00004CDE902344FF000034FF000045E
:104EA000CDE900344FF00002544B4FF000004FF0BA
:104EB0000001FDF783FF40F6C410FDF733F84FF013
:104EC00000034FF00004CDE902344FF00003534CCF
:104ED000CDE900344FF000024FF000034FF0000026
:104EE0004FF00001FDF76AFF00BF464B1B684849C1
:104EF000184603F067FB0346002B08D0414B1B68A4
:104F00004449184603F040FB0346002BEDD14FF017
:104F100000034FF00004CDE902344FF000034FF0DE
:104F20000004CDE900344FF00002344B4FF0000094
:104F30004FF00001FDF742FF40F61C40FCF7F2FF86
:104F40004FF000034FF00004CDE902344FF00003AE
:104F50004FF00004CDE900344FF000024FF00003A1
:104F60004FF000004FF00001FDF728FFFFF7B8FCFD
:104F70004FF000034FF00004CDE902344FF000037E
:104F8000224CCDE900344FF000024FF000034FF007
:104F900000004FF00001FDF711FF00BF194B1B6827
:104FA000012214461A49184603F00CFB0346002B55
:104FB00001D100231C46E3B283F00103DBB2002BD6
:104FC000ECD1104B1B68012214461249184603F01D
:104FD000DBFA0346002B01D100231C46E3B283F029
:104FE0000103DBB2002BD9D14FF000034FF00004D6
:104FF000CDE902344FF00003074C11E000005940A6
:10500000000059C0C00400200080B7430000544095
:105010000000EC420000F842000054C000004EC006
:10502000CDE900344FF000024FF000034FF00000D4
:105030004FF00001FDF7C2FE6420FCF773FFFDF79F
:105040004FF94FF000034FF00004CDE902344FF068
:1050500000034FF00004CDE90034CBA3D3E90023D3
:105060004FF000004FF00001FDF7A8FE4FF4FA608A
:10507000FCF758FF4FF000034FF00004CDE9023475
:105080004FF000034FF00004CDE900344FF0000270
:105090004FF000034FF000004FF00001FDF78EFECF
:1050A0004FF4FA70FCF73EFFFDF7F8F84FF00003FD
:1050B0004FF00004CDE902344FF00003B44CCDE9C9
:1050C00000344FF000024FF000034FF000004FF0AB
:1050D0000001FDF773FE00BFAE4B1B6801221446B2
:1050E000AD49184603F06EFA0346002B01D10023A8
:1050F0001C46E3B283F00103DBB2002BECD1A54BDD
:105100001B6801221446A549184603F03DFA0346E0
:10511000002B01D100231C46E3B283F00103DBB274
:10512000002BD9D14FF000034FF00004CDE9023439
:105130004FF000039A4CCDE900344FF000024FF0DD
:1051400000034FF000004FF00001FDF737FE642030
:10515000FCF7E8FE4FF000034FF00004CDE9023405
:105160004FF000034FF00004CDE900344FF000028F
:105170004FF000034FF000004FF00001FDF71EFE5E
:105180004FF4FA70FCF7CEFEFDF7AAF84FF00003DB
:105190004FF00004CDE902344FF000034FF000045B
:1051A000CDE900344FF000027E4B4FF000004FF08D
:1051B0000001FDF703FE4FF44860FCF7B3FEFDF776
:1051C0006DF84FF000034FF00004CDE902344FF0CA
:1051D0000003734CCDE900344FF000024FF00003A0
:1051E0004FF000004FF00001FDF7E8FD00BF694BF4
:1051F0001B68012214466C49184603F0E3F9034684
:10520000002B01D100231C46E3B283F00103DBB283
:10521000002BECD15F4B1B680122144663491846F2
:1052200003F0B2F90346002B01D100231C46E3B280
:1052300083F00103DBB2002BD9D14FF000034FF014
:105240000004CDE902344FF000034FF00004CDE933
:1052500000344FF000024FF000034FF000004FF019
:105260000001FDF7ABFD4FF4FA70FCF75BFE4FF069
:1052700000034FF00004CDE902344FF00003494C25
:10528000CDE900344FF000024FF000034FF0000072
:105290004FF00001FDF792FDFDF722F8FDF742F80F
:1052A0000020FDF74BF84FF000034FF00004CDE96C
:1052B00002344FF00003364CCDE900344FF00002C9
:1052C0004FF000034FF000004FF00001FDF776FDB6
:1052D00000BF304B1B68012214463549184603F0C5
:1052E00071F90346002B01D100231C46E3B283F081
:1052F0000103DBB2002BECD1264B1B6801221446C4
:105300002C49184603F040F90346002B01D1002335
:105310001C46E3B283F00103DBB2002BD9D14FF07E
:1053200000034FF00004CDE902344FF000031C4CA1
:10533000CDE900344FF000024FF000034FF00000C1
:105340004FF00001FDF73AFD6420FCF7EBFD4FF054
:1053500000034FF00004CDE902344FF000034FF09A
:105360000004CDE900344FF000024FF000034FF08D
:1053700000004FF00001FDF721FD4FF4FA70FCF73B
:10538000D1FD4FF0000317E00000000000C06240B4
:1053900000005440C004002000004E43000056436B
:1053A000000059C0000059400000FA4200000443C8
:1053B00000004A43000052434FF00004CDE902349C
:1053C0004FF000034FF00004CDE900344FF000022D
:1053D000AC4B4FF000004FF00001FDF7EFFC40F642
:1053E000FC00FCF79FFD4FF000034FF00004CDE9F7
:1053F00002344FF00003A44CCDE900344FF000021A
:105400004FF000034FF000004FF00001FDF7D6FC15
:1054100000BF9E4B1B689E49184603F0D3F8034615
:10542000002B08D0994B1B689A49184603F0ACF83A
:105430000346002BEDD14FF000034FF00004CDE9FF
:1054400002344FF000034FF00004CDE900344FF078
:1054500000024FF000034FF000004FF00001FDF795
:10546000ADFC4FF4FA70FCF75DFD4FF000034FF018
:105470000004CDE902344FF000034FF00004CDE901
:1054800000344FF000027F4B4FF000004FF000015E
:10549000FDF794FC40F6B830FCF744FD4FF00003F4
:1054A0004FF00004CDE902344FF000037A4CCDE90F
:1054B00000344FF000024FF000034FF000004FF0B7
:1054C0000001FDF77BFC00BF704B1B6801221446F6
:1054D0007249184603F076F80346002B01D10023E9
:1054E0001C46E3B283F00103DBB2002BECD1674B27
:1054F0001B68012214466A49184603F045F8034622
:10550000002B01D100231C46E3B283F00103DBB280
:10551000002BD9D14FF000034FF00004CDE9023445
:105520004FF00003574CCDE900344FF000024FF02C
:1055300000034FF000004FF00001FDF73FFC642036
:10554000FCF7F0FC4FF000034FF00004CDE902340B
:105550004FF000034FF00004CDE900344FF000029B
:105560004FF000034FF000004FF00001FDF726FC64
:105570004FF4FA60FCF7D6FCFCF790FE00BF494BF5
:105580001B88002BFBD0484B1B88002BF7D0FFF764
:10559000B9FA4FF000034FF00004CDE902344FF0A8
:1055A0000003424CCDE900344FF000024FF00003FD
:1055B0004FF000004FF00001FDF700FC00BF334B3F
:1055C0001B68012214463249184602F0FBFF0346CD
:1055D000002B01D100231C46E3B283F00103DBB2B0
:1055E000002BECD1294B1B6801221446294918468F
:1055F00002F0CAFF0346002B01D100231C46E3B290
:1056000083F00103DBB2002BD9D14FF000034FF040
:105610000004CDE902344FF000031B4CCDE9003407
:105620004FF000024FF000034FF000004FF0000178
:10563000FDF7C4FB6420FCF775FC4FF000034FF04E
:105640000004CDE902344FF000034FF00004CDE92F
:1056500000344FF000024FF000034FF000004FF015
:105660000001FDF7ABFB4FF4FA70FCF75BFCFCF7B5
:1056700037FEFCF757FEFEF707FF00BF0437BD46B5
:1056800090BD00BF00005940000059C0C004002078
:1056900000004A4300005243000054C00000EC42A6
:1056A0000000F842EC0400200405002000005440F3
:1056B00080B500AF0121074800F019FB0346002B1D
:1056C00005D00121034800F03BFBFFF711F800BFB4
:1056D00080BD00BF000C004080B485B000AF786092
:1056E00039600023FB817B681B88FB817B68284A2B
:1056F000934213D07B68274A93420FD07B68B3F163
:10570000804F0BD07B68244A934207D07B68234AA2
:10571000934203D07B68224A934208D1FB8923F04D
:105720007003FB813B685A88FB891343FB817B68CC
:105730001C4A93420CD07B681B4A934208D0FB89D9
:1057400023F44073FB813B681A89FB891343FB8177
:105750007B68FA891A803B685A687B68DA623B6822
:105760001A887B681A857B68094A934203D07B6854
:10577000084A934204D13B689B7A9AB27B681A86A6
:105780007B6801229A8200BF1437BD4680BC7047F7
:1057900000000140000401400004004000080040F7
:1057A000000C0040001000400014004080B483B0A2
:1057B00000AF78600B46FB70FB78002B08D07B684D
:1057C0001B889BB243F001039AB27B681A8007E002
:1057D0007B681B889BB223F001039AB27B681A8016
:1057E00000BF0C37BD4680BC7047000080B485B058
:1057F00000AF7860396000237B810023FB810023A8
:10580000BB817B681B8C9BB223F001039AB27B683F
:105810001A847B681B8CFB817B689B88BB817B68BF
:105820001B8B7B817B8923F070037B817B8923F039
:1058300003037B813B681A887B8913437B81FB8947
:1058400023F00203FB813B689A89FB891343FB81A8
:105850003B685A88FB891343FB817B681E4A93424D
:1058600003D07B681D4A934223D1FB8923F00803B0
:10587000FB813B68DA89FB891343FB81FB8923F0B9
:105880000403FB813B689A88FB891343FB81BB8936
:1058900023F48073BB81BB8923F40073BB813B6815
:1058A0001A8ABB891343BB813B685A8ABB8913435D
:1058B000BB817B68BA899A807B687A891A833B6846
:1058C0009A687B685A637B68FA891A8400BF143728
:1058D000BD4680BC704700BF00000140000401408D
:1058E00080B485B000AF7860396000237B810023ED
:1058F000FB810023BB817B681B8C9BB223F01003D0
:105900009AB27B681A847B681B8CFB817B689B88BE
:10591000BB817B681B8B7B817B8923F4E0437B818C
:105920007B8923F440737B813B681B881B029AB2FE
:105930007B8913437B81FB8923F02003FB813B6838
:105940009B891B019AB2FB891343FB813B685B88EF
:105950001B019AB2FB891343FB817B68224A934265
:1059600003D07B68214A93422BD1FB8923F080032B
:10597000FB813B68DB891B019AB2FB891343FB81E6
:10598000FB8923F04003FB813B689B881B019AB293
:10599000FB891343FB81BB8923F48063BB81BB89F3
:1059A00023F40063BB813B681B8A9B009AB2BB89CE
:1059B0001343BB813B685B8A9B009AB2BB8913434C
:1059C000BB817B68BA899A807B687A891A833B6835
:1059D0009A687B689A637B68FA891A8400BF1437D7
:1059E000BD4680BC704700BF00000140000401407C
:1059F00080B485B000AF7860396000237B810023DC
:105A0000FB810023BB817B681B8C9BB223F48073DA
:105A10009AB27B681A847B681B8CFB817B689B88AD
:105A2000BB817B689B8B7B817B8923F070037B81AF
:105A30007B8923F003037B813B681A887B891343AE
:105A40007B81FB8923F40073FB813B689B891B02EC
:105A50009AB2FB891343FB813B685B881B029AB2B5
:105A6000FB891343FB817B68224A934203D07B6806
:105A7000214A93422BD1FB8923F40063FB813B68CD
:105A8000DB891B029AB2FB891343FB81FB8923F458
:105A90008063FB813B689B881B029AB2FB8913439E
:105AA000FB81BB8923F48053BB81BB8923F4005362
:105AB000BB813B681B8A1B019AB2BB891343BB8124
:105AC0003B685B8A1B019AB2BB891343BB817B682D
:105AD000BA899A807B687A899A833B689A687B68DE
